{
    "contractName": "FaucetERC20",
    "abi": [
        {
            "inputs": [],
            "stateMutability": "nonpayable",
            "type": "constructor"
        },
        {
            "anonymous": false,
            "inputs": [
                {
                    "indexed": true,
                    "internalType": "address",
                    "name": "sender",
                    "type": "address"
                },
                {
                    "indexed": true,
                    "internalType": "address",
                    "name": "token",
                    "type": "address"
                },
                {
                    "indexed": true,
                    "internalType": "address",
                    "name": "to",
                    "type": "address"
                },
                {
                    "indexed": false,
                    "internalType": "uint256",
                    "name": "amount",
                    "type": "uint256"
                }
            ],
            "name": "Faucet",
            "type": "event"
        },
        {
            "inputs": [],
            "name": "acceptSetter",
            "outputs": [],
            "stateMutability": "nonpayable",
            "type": "function"
        },
        {
            "inputs": [
                {
                    "internalType": "address",
                    "name": "token",
                    "type": "address"
                },
                {
                    "internalType": "address",
                    "name": "to",
                    "type": "address"
                }
            ],
            "name": "faucet",
            "outputs": [
                {
                    "internalType": "bool",
                    "name": "",
                    "type": "bool"
                }
            ],
            "stateMutability": "nonpayable",
            "type": "function"
        },
        {
            "inputs": [],
            "name": "faucetAmount",
            "outputs": [
                {
                    "internalType": "uint256",
                    "name": "",
                    "type": "uint256"
                }
            ],
            "stateMutability": "view",
            "type": "function"
        },
        {
            "inputs": [
                {
                    "internalType": "address",
                    "name": "",
                    "type": "address"
                },
                {
                    "internalType": "address",
                    "name": "",
                    "type": "address"
                }
            ],
            "name": "faucetLastOf",
            "outputs": [
                {
                    "internalType": "uint256",
                    "name": "",
                    "type": "uint256"
                }
            ],
            "stateMutability": "view",
            "type": "function"
        },
        {
            "inputs": [],
            "name": "limitTime",
            "outputs": [
                {
                    "internalType": "uint256",
                    "name": "",
                    "type": "uint256"
                }
            ],
            "stateMutability": "view",
            "type": "function"
        },
        {
            "inputs": [],
            "name": "owner",
            "outputs": [
                {
                    "internalType": "address",
                    "name": "",
                    "type": "address"
                }
            ],
            "stateMutability": "view",
            "type": "function"
        },
        {
            "inputs": [
                {
                    "internalType": "uint256",
                    "name": "a",
                    "type": "uint256"
                }
            ],
            "name": "setFaucetAmount",
            "outputs": [],
            "stateMutability": "nonpayable",
            "type": "function"
        },
        {
            "inputs": [
                {
                    "internalType": "uint256",
                    "name": "t",
                    "type": "uint256"
                }
            ],
            "name": "setLimitTime",
            "outputs": [],
            "stateMutability": "nonpayable",
            "type": "function"
        },
        {
            "inputs": [
                {
                    "internalType": "address",
                    "name": "_owner",
                    "type": "address"
                }
            ],
            "name": "transferOwner",
            "outputs": [],
            "stateMutability": "nonpayable",
            "type": "function"
        }
    ],
    "bytecode": "6080604052606460035561025860045534801561001b57600080fd5b50600080546001600160a01b031916331790556106c18061003d6000396000f3fe608060405234801561001057600080fd5b50600436106100935760003560e01c80638da5cb5b116100665780638da5cb5b146100f05780639c2814301461011b578063ae94498614610132578063b3b95e301461015d578063e7e62d361461016657600080fd5b80634fb2e45d146100985780635f8e422f146100ad5780637535679a146100b557806381d2fd9c146100dd575b600080fd5b6100ab6100a6366004610482565b610179565b005b6100ab6101ce565b6100c86100c33660046104a4565b61021f565b60405190151581526020015b60405180910390f35b6100ab6100eb3660046104d7565b610408565b600054610103906001600160a01b031681565b6040516001600160a01b0390911681526020016100d4565b61012460035481565b6040519081526020016100d4565b6101246101403660046104a4565b600260209081526000928352604080842090915290825290205481565b61012460045481565b6100ab6101743660046104d7565b610437565b6000546001600160a01b031633146101ac5760405162461bcd60e51b81526004016101a3906104f0565b60405180910390fd5b600180546001600160a01b0319166001600160a01b0392909216919091179055565b6001546001600160a01b031633146101f85760405162461bcd60e51b81526004016101a3906104f0565b60018054600080546001600160a01b03199081166001600160a01b03841617909155169055565b6001600160a01b038083166000908152600260209081526040808320938516835292905290812054839061025590610258610529565b421161028f5760405162461bcd60e51b81526020600482015260096024820152681d1a5b59481dd85a5d60ba1b60448201526064016101a3565b6000816001600160a01b031663313ce5676040518163ffffffff1660e01b8152600401602060405180830381865afa1580156102cf573d6000803e3d6000fd5b505050506040513d601f19601f820116820180604052508101906102f3919061053c565b6102fe90600a610643565b60035461030b9190610652565b6001600160a01b038681166000908152600260209081526040808320898516808552925291829020429055905163a9059cbb60e01b815260048101919091526024810183905291925083169063a9059cbb906044016020604051808303816000875af115801561037f573d6000803e3d6000fd5b505050506040513d601f19601f820116820180604052508101906103a39190610669565b50836001600160a01b0316856001600160a01b0316336001600160a01b03167fec8fa084d4361a65b6142ffc008df656f0e76a3dfe6968b31a8844d07bdd27f8846040516103f391815260200190565b60405180910390a46001925050505b92915050565b6000546001600160a01b031633146104325760405162461bcd60e51b81526004016101a3906104f0565b600355565b6000546001600160a01b031633146104615760405162461bcd60e51b81526004016101a3906104f0565b600455565b80356001600160a01b038116811461047d57600080fd5b919050565b60006020828403121561049457600080fd5b61049d82610466565b9392505050565b600080604083850312156104b757600080fd5b6104c083610466565b91506104ce60208401610466565b90509250929050565b6000602082840312156104e957600080fd5b5035919050565b6020808252600990820152683337b93134b23232b760b91b604082015260600190565b634e487b7160e01b600052601160045260246000fd5b8082018082111561040257610402610513565b60006020828403121561054e57600080fd5b815160ff8116811461049d57600080fd5b600181815b8085111561059a57816000190482111561058057610580610513565b8085161561058d57918102915b93841c9390800290610564565b509250929050565b6000826105b157506001610402565b816105be57506000610402565b81600181146105d457600281146105de576105fa565b6001915050610402565b60ff8411156105ef576105ef610513565b50506001821b610402565b5060208310610133831016604e8410600b841016171561061d575081810a610402565b610627838361055f565b806000190482111561063b5761063b610513565b029392505050565b600061049d60ff8416836105a2565b808202811582820484141761040257610402610513565b60006020828403121561067b57600080fd5b8151801515811461049d57600080fdfea264697066735822122054d09a58412cedeb367d28a5a993defeb0d45666ccec5014e3e6fb79cee3537964736f6c63430008110033",
    "sourcePath": "d:/contract/iotabee_test/faucet.sol",
    "compiler": {
        "name": "solc",
        "version": "0.8.17+commit.8df45f5f"
    },
    "functionHashes": {
        "acceptSetter()": "5f8e422f",
        "faucet(address,address)": "7535679a",
        "faucetAmount()": "9c281430",
        "faucetLastOf(address,address)": "ae944986",
        "limitTime()": "b3b95e30",
        "owner()": "8da5cb5b",
        "setFaucetAmount(uint256)": "81d2fd9c",
        "setLimitTime(uint256)": "e7e62d36",
        "transferOwner(address)": "4fb2e45d"
    },
    "gasEstimates": {
        "creation": {
            "codeDepositCost": "345800",
            "executionCost": "68833",
            "totalCost": "414633"
        },
        "external": {
            "acceptSetter()": "50782",
            "faucet(address,address)": "infinite",
            "faucetAmount()": "2317",
            "faucetLastOf(address,address)": "infinite",
            "limitTime()": "2361",
            "owner()": "2337",
            "setFaucetAmount(uint256)": "24531",
            "setLimitTime(uint256)": "24552",
            "transferOwner(address)": "26712"
        }
    }
}