{
    "contractName": "IotabeeOrder",
    "abi": [
        {
            "inputs": [
                {
                    "internalType": "address",
                    "name": "_token",
                    "type": "address"
                },
                {
                    "internalType": "address",
                    "name": "_pool",
                    "type": "address"
                }
            ],
            "stateMutability": "nonpayable",
            "type": "constructor"
        },
        {
            "anonymous": false,
            "inputs": [
                {
                    "indexed": true,
                    "internalType": "address",
                    "name": "sender",
                    "type": "address"
                },
                {
                    "indexed": false,
                    "internalType": "bytes32",
                    "name": "coin",
                    "type": "bytes32"
                },
                {
                    "indexed": false,
                    "internalType": "bytes32",
                    "name": "account",
                    "type": "bytes32"
                },
                {
                    "indexed": false,
                    "internalType": "uint256",
                    "name": "amount",
                    "type": "uint256"
                }
            ],
            "name": "Collect",
            "type": "event"
        },
        {
            "anonymous": false,
            "inputs": [
                {
                    "indexed": true,
                    "internalType": "address",
                    "name": "sender",
                    "type": "address"
                },
                {
                    "indexed": false,
                    "internalType": "bytes32",
                    "name": "toCoin",
                    "type": "bytes32"
                },
                {
                    "indexed": false,
                    "internalType": "bytes32",
                    "name": "toAddr",
                    "type": "bytes32"
                },
                {
                    "indexed": false,
                    "internalType": "uint256",
                    "name": "amount",
                    "type": "uint256"
                },
                {
                    "indexed": false,
                    "internalType": "uint256",
                    "name": "min_amount",
                    "type": "uint256"
                }
            ],
            "name": "Swap",
            "type": "event"
        },
        {
            "inputs": [
                {
                    "internalType": "bytes32",
                    "name": "coin",
                    "type": "bytes32"
                },
                {
                    "internalType": "bytes32",
                    "name": "account",
                    "type": "bytes32"
                },
                {
                    "internalType": "uint256",
                    "name": "amount",
                    "type": "uint256"
                }
            ],
            "name": "collect",
            "outputs": [],
            "stateMutability": "nonpayable",
            "type": "function"
        },
        {
            "inputs": [],
            "name": "pool",
            "outputs": [
                {
                    "internalType": "address",
                    "name": "",
                    "type": "address"
                }
            ],
            "stateMutability": "view",
            "type": "function"
        },
        {
            "inputs": [
                {
                    "internalType": "bytes32",
                    "name": "toCoin",
                    "type": "bytes32"
                },
                {
                    "internalType": "bytes32",
                    "name": "toAddr",
                    "type": "bytes32"
                },
                {
                    "internalType": "uint256",
                    "name": "amount",
                    "type": "uint256"
                },
                {
                    "internalType": "uint256",
                    "name": "min_amount",
                    "type": "uint256"
                }
            ],
            "name": "swap",
            "outputs": [],
            "stateMutability": "nonpayable",
            "type": "function"
        },
        {
            "inputs": [],
            "name": "token",
            "outputs": [
                {
                    "internalType": "contract IERC20",
                    "name": "",
                    "type": "address"
                }
            ],
            "stateMutability": "view",
            "type": "function"
        }
    ],
    "bytecode": "608060405234801561001057600080fd5b506040516103ce3803806103ce83398101604081905261002f9161007c565b600180546001600160a01b039384166001600160a01b031991821617909155600080549290931691161790556100af565b80516001600160a01b038116811461007757600080fd5b919050565b6000806040838503121561008f57600080fd5b61009883610060565b91506100a660208401610060565b90509250929050565b610310806100be6000396000f3fe608060405234801561001057600080fd5b506004361061004c5760003560e01c806316f0115b146100515780638d2754a014610080578063d90cf07014610095578063fc0c546a146100a8575b600080fd5b600054610064906001600160a01b031681565b6040516001600160a01b03909116815260200160405180910390f35b61009361008e366004610253565b6100bb565b005b6100936100a336600461027f565b610183565b600154610064906001600160a01b031681565b6001546000546040516323b872dd60e01b81523360048201526001600160a01b039182166024820152604481018490529116906323b872dd906064016020604051808303816000875af1158015610116573d6000803e3d6000fd5b505050506040513d601f19601f8201168201806040525081019061013a91906102b1565b50604080518481526020810184905290810182905233907f96d87b99131835302816acc8aa52704a3961f803622a92c490547d88a884e6ac9060600160405180910390a2505050565b6001546000546040516323b872dd60e01b81523360048201526001600160a01b039182166024820152604481018590529116906323b872dd906064016020604051808303816000875af11580156101de573d6000803e3d6000fd5b505050506040513d601f19601f8201168201806040525081019061020291906102b1565b5060408051858152602081018590529081018390526060810182905233907fe353b2af3b79c1202b265675592f4e12eb3fafeaace4b1d9c128ede7d1de4f0d9060800160405180910390a250505050565b60008060006060848603121561026857600080fd5b505081359360208301359350604090920135919050565b6000806000806080858703121561029557600080fd5b5050823594602084013594506040840135936060013592509050565b6000602082840312156102c357600080fd5b815180151581146102d357600080fd5b939250505056fea264697066735822122001678672e18c0ed6d9c444be58a44d80647524fc8f8e5a8b45e440439cc7c47864736f6c63430008110033",
    "sourcePath": "d:/contract/iotabee_test/iotabee_order.sol",
    "compiler": {
        "name": "solc",
        "version": "0.8.17+commit.8df45f5f"
    },
    "functionHashes": {
        "collect(bytes32,bytes32,uint256)": "8d2754a0",
        "pool()": "16f0115b",
        "swap(bytes32,bytes32,uint256,uint256)": "d90cf070",
        "token()": "fc0c546a"
    },
    "gasEstimates": {
        "creation": {
            "codeDepositCost": "156800",
            "executionCost": "infinite",
            "totalCost": "infinite"
        },
        "external": {
            "collect(bytes32,bytes32,uint256)": "infinite",
            "pool()": "2303",
            "swap(bytes32,bytes32,uint256,uint256)": "infinite",
            "token()": "2369"
        }
    }
}