{
    "contractName": "TestUSDT",
    "abi": [
        {
            "inputs": [],
            "stateMutability": "nonpayable",
            "type": "constructor"
        },
        {
            "anonymous": false,
            "inputs": [
                {
                    "indexed": true,
                    "internalType": "address",
                    "name": "owner",
                    "type": "address"
                },
                {
                    "indexed": true,
                    "internalType": "address",
                    "name": "spender",
                    "type": "address"
                },
                {
                    "indexed": false,
                    "internalType": "uint256",
                    "name": "value",
                    "type": "uint256"
                }
            ],
            "name": "Approval",
            "type": "event"
        },
        {
            "anonymous": false,
            "inputs": [
                {
                    "indexed": true,
                    "internalType": "address",
                    "name": "sender",
                    "type": "address"
                },
                {
                    "indexed": false,
                    "internalType": "uint256",
                    "name": "amount",
                    "type": "uint256"
                }
            ],
            "name": "Faucet",
            "type": "event"
        },
        {
            "anonymous": false,
            "inputs": [
                {
                    "indexed": true,
                    "internalType": "address",
                    "name": "sender",
                    "type": "address"
                },
                {
                    "indexed": false,
                    "internalType": "uint256",
                    "name": "amount",
                    "type": "uint256"
                }
            ],
            "name": "Mint",
            "type": "event"
        },
        {
            "anonymous": false,
            "inputs": [
                {
                    "indexed": true,
                    "internalType": "address",
                    "name": "from",
                    "type": "address"
                },
                {
                    "indexed": true,
                    "internalType": "address",
                    "name": "to",
                    "type": "address"
                },
                {
                    "indexed": false,
                    "internalType": "uint256",
                    "name": "value",
                    "type": "uint256"
                }
            ],
            "name": "Transfer",
            "type": "event"
        },
        {
            "inputs": [
                {
                    "internalType": "address",
                    "name": "",
                    "type": "address"
                },
                {
                    "internalType": "address",
                    "name": "",
                    "type": "address"
                }
            ],
            "name": "allowance",
            "outputs": [
                {
                    "internalType": "uint256",
                    "name": "",
                    "type": "uint256"
                }
            ],
            "stateMutability": "view",
            "type": "function"
        },
        {
            "inputs": [
                {
                    "internalType": "address",
                    "name": "spender",
                    "type": "address"
                },
                {
                    "internalType": "uint256",
                    "name": "value",
                    "type": "uint256"
                }
            ],
            "name": "approve",
            "outputs": [
                {
                    "internalType": "bool",
                    "name": "",
                    "type": "bool"
                }
            ],
            "stateMutability": "nonpayable",
            "type": "function"
        },
        {
            "inputs": [
                {
                    "internalType": "address",
                    "name": "",
                    "type": "address"
                }
            ],
            "name": "balanceOf",
            "outputs": [
                {
                    "internalType": "uint256",
                    "name": "",
                    "type": "uint256"
                }
            ],
            "stateMutability": "view",
            "type": "function"
        },
        {
            "inputs": [],
            "name": "decimals",
            "outputs": [
                {
                    "internalType": "uint8",
                    "name": "",
                    "type": "uint8"
                }
            ],
            "stateMutability": "view",
            "type": "function"
        },
        {
            "inputs": [],
            "name": "faucet",
            "outputs": [
                {
                    "internalType": "bool",
                    "name": "",
                    "type": "bool"
                }
            ],
            "stateMutability": "nonpayable",
            "type": "function"
        },
        {
            "inputs": [],
            "name": "faucetAmount",
            "outputs": [
                {
                    "internalType": "uint256",
                    "name": "",
                    "type": "uint256"
                }
            ],
            "stateMutability": "view",
            "type": "function"
        },
        {
            "inputs": [],
            "name": "getReceivers",
            "outputs": [
                {
                    "internalType": "address[]",
                    "name": "",
                    "type": "address[]"
                }
            ],
            "stateMutability": "view",
            "type": "function"
        },
        {
            "inputs": [
                {
                    "internalType": "address",
                    "name": "",
                    "type": "address"
                }
            ],
            "name": "isFauceted",
            "outputs": [
                {
                    "internalType": "bool",
                    "name": "",
                    "type": "bool"
                }
            ],
            "stateMutability": "view",
            "type": "function"
        },
        {
            "inputs": [
                {
                    "internalType": "uint256",
                    "name": "amount",
                    "type": "uint256"
                }
            ],
            "name": "mint",
            "outputs": [],
            "stateMutability": "nonpayable",
            "type": "function"
        },
        {
            "inputs": [],
            "name": "minter",
            "outputs": [
                {
                    "internalType": "address",
                    "name": "",
                    "type": "address"
                }
            ],
            "stateMutability": "view",
            "type": "function"
        },
        {
            "inputs": [],
            "name": "name",
            "outputs": [
                {
                    "internalType": "string",
                    "name": "",
                    "type": "string"
                }
            ],
            "stateMutability": "view",
            "type": "function"
        },
        {
            "inputs": [
                {
                    "internalType": "uint256",
                    "name": "amount",
                    "type": "uint256"
                }
            ],
            "name": "setFaucetAmount",
            "outputs": [
                {
                    "internalType": "bool",
                    "name": "",
                    "type": "bool"
                }
            ],
            "stateMutability": "nonpayable",
            "type": "function"
        },
        {
            "inputs": [],
            "name": "symbol",
            "outputs": [
                {
                    "internalType": "string",
                    "name": "",
                    "type": "string"
                }
            ],
            "stateMutability": "view",
            "type": "function"
        },
        {
            "inputs": [],
            "name": "totalSupply",
            "outputs": [
                {
                    "internalType": "uint256",
                    "name": "",
                    "type": "uint256"
                }
            ],
            "stateMutability": "view",
            "type": "function"
        },
        {
            "inputs": [
                {
                    "internalType": "address",
                    "name": "to",
                    "type": "address"
                },
                {
                    "internalType": "uint256",
                    "name": "value",
                    "type": "uint256"
                }
            ],
            "name": "transfer",
            "outputs": [
                {
                    "internalType": "bool",
                    "name": "",
                    "type": "bool"
                }
            ],
            "stateMutability": "nonpayable",
            "type": "function"
        },
        {
            "inputs": [
                {
                    "internalType": "address",
                    "name": "from",
                    "type": "address"
                },
                {
                    "internalType": "address",
                    "name": "to",
                    "type": "address"
                },
                {
                    "internalType": "uint256",
                    "name": "value",
                    "type": "uint256"
                }
            ],
            "name": "transferFrom",
            "outputs": [
                {
                    "internalType": "bool",
                    "name": "",
                    "type": "bool"
                }
            ],
            "stateMutability": "nonpayable",
            "type": "function"
        }
    ],
    "bytecode": "60c0604052600860809081526715195cdd081554d160c21b60a0526000906200002990826200014c565b506040805180820190915260048152631554d11560e21b60208201526001906200005490826200014c565b506002805460ff191660061790556103e86009553480156200007557600080fd5b50600060038190553380825260056020526040822091909155600480546001600160a01b031916909117905562000218565b634e487b7160e01b600052604160045260246000fd5b600181811c90821680620000d257607f821691505b602082108103620000f357634e487b7160e01b600052602260045260246000fd5b50919050565b601f8211156200014757600081815260208120601f850160051c81016020861015620001225750805b601f850160051c820191505b8181101562000143578281556001016200012e565b5050505b505050565b81516001600160401b03811115620001685762000168620000a7565b6200018081620001798454620000bd565b84620000f9565b602080601f831160018114620001b857600084156200019f5750858301515b600019600386901b1c1916600185901b17855562000143565b600085815260208120601f198616915b82811015620001e957888601518255948401946001909101908401620001c8565b5085821015620002085787850151600019600388901b60f8161c191681555b5050505050600190811b01905550565b610a6180620002286000396000f3fe608060405234801561001057600080fd5b50600436106101005760003560e01c806381d2fd9c11610097578063a9059cbb11610066578063a9059cbb14610236578063dd62ed3e14610249578063de5f72fd14610274578063e061646b1461027c57600080fd5b806381d2fd9c146101fd57806395d89b41146102105780639c28143014610218578063a0712d681461022157600080fd5b806323b872dd116100d357806323b872dd146101885780632d2c3edf1461019b578063313ce567146101be57806370a08231146101dd57600080fd5b806306fdde03146101055780630754617214610123578063095ea7b31461014e57806318160ddd14610171575b600080fd5b61010d610291565b60405161011a9190610720565b60405180910390f35b600454610136906001600160a01b031681565b6040516001600160a01b03909116815260200161011a565b61016161015c36600461078a565b61031f565b604051901515815260200161011a565b61017a60035481565b60405190815260200161011a565b6101616101963660046107b4565b610336565b6101616101a93660046107f0565b60086020526000908152604090205460ff1681565b6002546101cb9060ff1681565b60405160ff909116815260200161011a565b61017a6101eb3660046107f0565b60056020526000908152604090205481565b61016161020b366004610812565b6103b0565b61010d6103d3565b61017a60095481565b61023461022f366004610812565b6103e0565b005b61016161024436600461078a565b61045e565b61017a61025736600461082b565b600660209081526000928352604080842090915290825290205481565b61016161046b565b6102846105bb565b60405161011a919061085e565b6000805461029e906108ab565b80601f01602080910402602001604051908101604052809291908181526020018280546102ca906108ab565b80156103175780601f106102ec57610100808354040283529160200191610317565b820191906000526020600020905b8154815290600101906020018083116102fa57829003601f168201915b505050505081565b600061032c33848461061d565b5060015b92915050565b6001600160a01b03831660009081526006602090815260408083203384529091528120546000191461039b576001600160a01b0384166000908152600660209081526040808320338452909152812080548492906103959084906108fb565b90915550505b6103a684848461067f565b5060019392505050565b6004546000906001600160a01b031633146103ca57600080fd5b50600955600190565b6001805461029e906108ab565b6004546001600160a01b031633146103f757600080fd5b6004546001600160a01b03166000908152600560205260408120805483929061042190849061090e565b909155505060405181815233907f0f6798a560793a54c3bcfe86a93cde1e73087d944c0ea20544137d41213968859060200160405180910390a250565b600061032c33848461067f565b3360009081526008602052604081205460ff16156104ba5760405162461bcd60e51b815260206004820152600860248201526719985d58d95d195960c21b604482015260640160405180910390fd5b6002546000906104ce9060ff16600a610a05565b6009546104db9190610a14565b336000908152600560205260408120805492935083929091906104ff90849061090e565b925050819055508060036000828254610518919061090e565b909155505033600081815260086020526040808220805460ff191660019081179091556007805491820181559092527fa66cc928b5edb82af9bd49922954155ab7b0942694bea4ce44661d9a8736c68890910180546001600160a01b03191683179055517f1c5347d1e37925b93058518c26d7daabe45f0a3227e8d058aaf3682960eb2b94906105ab9084815260200190565b60405180910390a2600191505090565b6060600780548060200260200160405190810160405280929190818152602001828054801561061357602002820191906000526020600020905b81546001600160a01b031681526001909101906020018083116105f5575b5050505050905090565b6001600160a01b0383811660008181526006602090815260408083209487168084529482529182902085905590518481527f8c5be1e5ebec7d5bd14f71427d1e84f3dd0314c0f7b2291e5b200ac8c7c3b92591015b60405180910390a3505050565b6001600160a01b038316600090815260056020526040812080548392906106a79084906108fb565b90915550506001600160a01b038216600090815260056020526040812080548392906106d490849061090e565b92505081905550816001600160a01b0316836001600160a01b03167fddf252ad1be2c89b69c2b068fc378daa952ba7f163c4a11628f55a4df523b3ef8360405161067291815260200190565b600060208083528351808285015260005b8181101561074d57858101830151858201604001528201610731565b506000604082860101526040601f19601f8301168501019250505092915050565b80356001600160a01b038116811461078557600080fd5b919050565b6000806040838503121561079d57600080fd5b6107a68361076e565b946020939093013593505050565b6000806000606084860312156107c957600080fd5b6107d28461076e565b92506107e06020850161076e565b9150604084013590509250925092565b60006020828403121561080257600080fd5b61080b8261076e565b9392505050565b60006020828403121561082457600080fd5b5035919050565b6000806040838503121561083e57600080fd5b6108478361076e565b91506108556020840161076e565b90509250929050565b6020808252825182820181905260009190848201906040850190845b8181101561089f5783516001600160a01b03168352928401929184019160010161087a565b50909695505050505050565b600181811c908216806108bf57607f821691505b6020821081036108df57634e487b7160e01b600052602260045260246000fd5b50919050565b634e487b7160e01b600052601160045260246000fd5b81810381811115610330576103306108e5565b80820180821115610330576103306108e5565b600181815b8085111561095c578160001904821115610942576109426108e5565b8085161561094f57918102915b93841c9390800290610926565b509250929050565b60008261097357506001610330565b8161098057506000610330565b816001811461099657600281146109a0576109bc565b6001915050610330565b60ff8411156109b1576109b16108e5565b50506001821b610330565b5060208310610133831016604e8410600b84101617156109df575081810a610330565b6109e98383610921565b80600019048211156109fd576109fd6108e5565b029392505050565b600061080b60ff841683610964565b8082028115828204841417610330576103306108e556fea2646970667358221220c7bbf64c5fc104ba6816b6d312367adf3788f9f53cc96a050cb7dd4fbcbfb4df64736f6c63430008110033",
    "sourcePath": "d:/contract/iotabee_test/tt_faucet.sol",
    "compiler": {
        "name": "solc",
        "version": "0.8.17+commit.8df45f5f"
    },
    "functionHashes": {
        "allowance(address,address)": "dd62ed3e",
        "approve(address,uint256)": "095ea7b3",
        "balanceOf(address)": "70a08231",
        "decimals()": "313ce567",
        "faucet()": "de5f72fd",
        "faucetAmount()": "9c281430",
        "getReceivers()": "e061646b",
        "isFauceted(address)": "2d2c3edf",
        "mint(uint256)": "a0712d68",
        "minter()": "07546172",
        "name()": "06fdde03",
        "setFaucetAmount(uint256)": "81d2fd9c",
        "symbol()": "95d89b41",
        "totalSupply()": "18160ddd",
        "transfer(address,uint256)": "a9059cbb",
        "transferFrom(address,address,uint256)": "23b872dd"
    },
    "gasEstimates": {
        "creation": {
            "codeDepositCost": "531400",
            "executionCost": "infinite",
            "totalCost": "infinite"
        },
        "external": {
            "allowance(address,address)": "infinite",
            "approve(address,uint256)": "24596",
            "balanceOf(address)": "2608",
            "decimals()": "2380",
            "faucet()": "infinite",
            "faucetAmount()": "2362",
            "getReceivers()": "infinite",
            "isFauceted(address)": "2576",
            "mint(uint256)": "30379",
            "minter()": "2383",
            "name()": "infinite",
            "setFaucetAmount(uint256)": "24564",
            "symbol()": "infinite",
            "totalSupply()": "2385",
            "transfer(address,uint256)": "infinite",
            "transferFrom(address,address,uint256)": "infinite"
        },
        "internal": {
            "_approve(address,address,uint256)": "infinite",
            "_transfer(address,address,uint256)": "infinite"
        }
    }
}