{
    "contractName": "TokenERC20",
    "abi": [
        {
            "inputs": [],
            "stateMutability": "nonpayable",
            "type": "constructor"
        },
        {
            "anonymous": false,
            "inputs": [
                {
                    "indexed": true,
                    "internalType": "address",
                    "name": "owner",
                    "type": "address"
                },
                {
                    "indexed": true,
                    "internalType": "address",
                    "name": "spender",
                    "type": "address"
                },
                {
                    "indexed": false,
                    "internalType": "uint256",
                    "name": "value",
                    "type": "uint256"
                }
            ],
            "name": "Approval",
            "type": "event"
        },
        {
            "anonymous": false,
            "inputs": [
                {
                    "indexed": true,
                    "internalType": "address",
                    "name": "sender",
                    "type": "address"
                },
                {
                    "indexed": true,
                    "internalType": "address",
                    "name": "to",
                    "type": "address"
                },
                {
                    "indexed": false,
                    "internalType": "uint256",
                    "name": "amount",
                    "type": "uint256"
                }
            ],
            "name": "Faucet",
            "type": "event"
        },
        {
            "anonymous": false,
            "inputs": [
                {
                    "indexed": true,
                    "internalType": "address",
                    "name": "sender",
                    "type": "address"
                },
                {
                    "indexed": false,
                    "internalType": "uint256",
                    "name": "amount",
                    "type": "uint256"
                }
            ],
            "name": "Mint",
            "type": "event"
        },
        {
            "anonymous": false,
            "inputs": [
                {
                    "indexed": true,
                    "internalType": "address",
                    "name": "from",
                    "type": "address"
                },
                {
                    "indexed": true,
                    "internalType": "address",
                    "name": "to",
                    "type": "address"
                },
                {
                    "indexed": false,
                    "internalType": "uint256",
                    "name": "value",
                    "type": "uint256"
                }
            ],
            "name": "Transfer",
            "type": "event"
        },
        {
            "inputs": [
                {
                    "internalType": "address",
                    "name": "",
                    "type": "address"
                },
                {
                    "internalType": "address",
                    "name": "",
                    "type": "address"
                }
            ],
            "name": "allowance",
            "outputs": [
                {
                    "internalType": "uint256",
                    "name": "",
                    "type": "uint256"
                }
            ],
            "stateMutability": "view",
            "type": "function"
        },
        {
            "inputs": [
                {
                    "internalType": "address",
                    "name": "spender",
                    "type": "address"
                },
                {
                    "internalType": "uint256",
                    "name": "value",
                    "type": "uint256"
                }
            ],
            "name": "approve",
            "outputs": [
                {
                    "internalType": "bool",
                    "name": "",
                    "type": "bool"
                }
            ],
            "stateMutability": "nonpayable",
            "type": "function"
        },
        {
            "inputs": [
                {
                    "internalType": "address",
                    "name": "",
                    "type": "address"
                }
            ],
            "name": "balanceOf",
            "outputs": [
                {
                    "internalType": "uint256",
                    "name": "",
                    "type": "uint256"
                }
            ],
            "stateMutability": "view",
            "type": "function"
        },
        {
            "inputs": [],
            "name": "decimals",
            "outputs": [
                {
                    "internalType": "uint8",
                    "name": "",
                    "type": "uint8"
                }
            ],
            "stateMutability": "view",
            "type": "function"
        },
        {
            "inputs": [
                {
                    "internalType": "address",
                    "name": "to",
                    "type": "address"
                }
            ],
            "name": "faucet",
            "outputs": [
                {
                    "internalType": "bool",
                    "name": "",
                    "type": "bool"
                }
            ],
            "stateMutability": "nonpayable",
            "type": "function"
        },
        {
            "inputs": [],
            "name": "faucetAmount",
            "outputs": [
                {
                    "internalType": "uint256",
                    "name": "",
                    "type": "uint256"
                }
            ],
            "stateMutability": "view",
            "type": "function"
        },
        {
            "inputs": [
                {
                    "internalType": "address",
                    "name": "",
                    "type": "address"
                }
            ],
            "name": "faucetLastOf",
            "outputs": [
                {
                    "internalType": "uint256",
                    "name": "",
                    "type": "uint256"
                }
            ],
            "stateMutability": "view",
            "type": "function"
        },
        {
            "inputs": [
                {
                    "internalType": "uint256",
                    "name": "amount",
                    "type": "uint256"
                }
            ],
            "name": "mint",
            "outputs": [],
            "stateMutability": "nonpayable",
            "type": "function"
        },
        {
            "inputs": [],
            "name": "minter",
            "outputs": [
                {
                    "internalType": "address",
                    "name": "",
                    "type": "address"
                }
            ],
            "stateMutability": "view",
            "type": "function"
        },
        {
            "inputs": [],
            "name": "name",
            "outputs": [
                {
                    "internalType": "string",
                    "name": "",
                    "type": "string"
                }
            ],
            "stateMutability": "view",
            "type": "function"
        },
        {
            "inputs": [
                {
                    "internalType": "uint256",
                    "name": "amount",
                    "type": "uint256"
                }
            ],
            "name": "setFaucetAmount",
            "outputs": [
                {
                    "internalType": "bool",
                    "name": "",
                    "type": "bool"
                }
            ],
            "stateMutability": "nonpayable",
            "type": "function"
        },
        {
            "inputs": [],
            "name": "symbol",
            "outputs": [
                {
                    "internalType": "string",
                    "name": "",
                    "type": "string"
                }
            ],
            "stateMutability": "view",
            "type": "function"
        },
        {
            "inputs": [],
            "name": "totalSupply",
            "outputs": [
                {
                    "internalType": "uint256",
                    "name": "",
                    "type": "uint256"
                }
            ],
            "stateMutability": "view",
            "type": "function"
        },
        {
            "inputs": [
                {
                    "internalType": "address",
                    "name": "to",
                    "type": "address"
                },
                {
                    "internalType": "uint256",
                    "name": "value",
                    "type": "uint256"
                }
            ],
            "name": "transfer",
            "outputs": [
                {
                    "internalType": "bool",
                    "name": "",
                    "type": "bool"
                }
            ],
            "stateMutability": "nonpayable",
            "type": "function"
        },
        {
            "inputs": [
                {
                    "internalType": "address",
                    "name": "from",
                    "type": "address"
                },
                {
                    "internalType": "address",
                    "name": "to",
                    "type": "address"
                },
                {
                    "internalType": "uint256",
                    "name": "value",
                    "type": "uint256"
                }
            ],
            "name": "transferFrom",
            "outputs": [
                {
                    "internalType": "bool",
                    "name": "",
                    "type": "bool"
                }
            ],
            "stateMutability": "nonpayable",
            "type": "function"
        }
    ],
    "bytecode": "60c0604052601160809081527015195cdd08151bdad95b8811985d58d95d607a1b60a05260009062000032908262000177565b5060408051808201909152600381526215150d60ea1b60208201526001906200005c908262000177565b506002805460ff1916600617905560646008553480156200007c57600080fd5b50600254620000909060ff16600a62000358565b620000a1906402540be4006200036d565b600381905533600081815260056020526040902091909155600480546001600160a01b031916909117905562000387565b634e487b7160e01b600052604160045260246000fd5b600181811c90821680620000fd57607f821691505b6020821081036200011e57634e487b7160e01b600052602260045260246000fd5b50919050565b601f8211156200017257600081815260208120601f850160051c810160208610156200014d5750805b601f850160051c820191505b818110156200016e5782815560010162000159565b5050505b505050565b81516001600160401b03811115620001935762000193620000d2565b620001ab81620001a48454620000e8565b8462000124565b602080601f831160018114620001e35760008415620001ca5750858301515b600019600386901b1c1916600185901b1785556200016e565b600085815260208120601f198616915b828110156200021457888601518255948401946001909101908401620001f3565b5085821015620002335787850151600019600388901b60f8161c191681555b5050505050600190811b01905550565b634e487b7160e01b600052601160045260246000fd5b600181815b808511156200029a5781600019048211156200027e576200027e62000243565b808516156200028c57918102915b93841c93908002906200025e565b509250929050565b600082620002b35750600162000352565b81620002c25750600062000352565b8160018114620002db5760028114620002e65762000306565b600191505062000352565b60ff841115620002fa57620002fa62000243565b50506001821b62000352565b5060208310610133831016604e8410600b84101617156200032b575081810a62000352565b62000337838362000259565b80600019048211156200034e576200034e62000243565b0290505b92915050565b6000620003668383620002a2565b9392505050565b808202811582820484141762000352576200035262000243565b61096080620003976000396000f3fe608060405234801561001057600080fd5b50600436106100f55760003560e01c80637dd8786f11610097578063a0712d6811610066578063a0712d6814610213578063a9059cbb14610228578063b86d1d631461023b578063dd62ed3e1461024e57600080fd5b80637dd8786f146101cf57806381d2fd9c146101ef57806395d89b41146102025780639c2814301461020a57600080fd5b806318160ddd116100d357806318160ddd1461016657806323b872dd1461017d578063313ce5671461019057806370a08231146101af57600080fd5b806306fdde03146100fa5780630754617214610118578063095ea7b314610143575b600080fd5b610102610279565b60405161010f919061066c565b60405180910390f35b60045461012b906001600160a01b031681565b6040516001600160a01b03909116815260200161010f565b6101566101513660046106d6565b610307565b604051901515815260200161010f565b61016f60035481565b60405190815260200161010f565b61015661018b366004610700565b61031e565b60025461019d9060ff1681565b60405160ff909116815260200161010f565b61016f6101bd36600461073c565b60056020526000908152604090205481565b61016f6101dd36600461073c565b60076020526000908152604090205481565b6101566101fd36600461075e565b610398565b6101026103bb565b61016f60085481565b61022661022136600461075e565b6103c8565b005b6101566102363660046106d6565b610446565b61015661024936600461073c565b610453565b61016f61025c366004610777565b600660209081526000928352604080842090915290825290205481565b60008054610286906107aa565b80601f01602080910402602001604051908101604052809291908181526020018280546102b2906107aa565b80156102ff5780601f106102d4576101008083540402835291602001916102ff565b820191906000526020600020905b8154815290600101906020018083116102e257829003601f168201915b505050505081565b6000610314338484610569565b5060015b92915050565b6001600160a01b038316600090815260066020908152604080832033845290915281205460001914610383576001600160a01b03841660009081526006602090815260408083203384529091528120805484929061037d9084906107fa565b90915550505b61038e8484846105cb565b5060019392505050565b6004546000906001600160a01b031633146103b257600080fd5b50600855600190565b60018054610286906107aa565b6004546001600160a01b031633146103df57600080fd5b6004546001600160a01b03166000908152600560205260408120805483929061040990849061080d565b909155505060405181815233907f0f6798a560793a54c3bcfe86a93cde1e73087d944c0ea20544137d41213968859060200160405180910390a250565b60006103143384846105cb565b6001600160a01b0381166000908152600760205260408120546104789061025861080d565b42116104b65760405162461bcd60e51b81526020600482015260096024820152681d1a5b59481dd85a5d60ba1b604482015260640160405180910390fd5b6002546000906104ca9060ff16600a610904565b6008546104d79190610913565b6001600160a01b03841660009081526005602052604081208054929350839290919061050490849061080d565b90915550506001600160a01b038316600081815260076020526040908190204290555133907f8df9ef7404c42e7288b0a32e4eabb433f845a4bbdf35bec2b0aebf43ca498d0c906105589085815260200190565b60405180910390a350600192915050565b6001600160a01b0383811660008181526006602090815260408083209487168084529482529182902085905590518481527f8c5be1e5ebec7d5bd14f71427d1e84f3dd0314c0f7b2291e5b200ac8c7c3b92591015b60405180910390a3505050565b6001600160a01b038316600090815260056020526040812080548392906105f39084906107fa565b90915550506001600160a01b0382166000908152600560205260408120805483929061062090849061080d565b92505081905550816001600160a01b0316836001600160a01b03167fddf252ad1be2c89b69c2b068fc378daa952ba7f163c4a11628f55a4df523b3ef836040516105be91815260200190565b600060208083528351808285015260005b818110156106995785810183015185820160400152820161067d565b506000604082860101526040601f19601f8301168501019250505092915050565b80356001600160a01b03811681146106d157600080fd5b919050565b600080604083850312156106e957600080fd5b6106f2836106ba565b946020939093013593505050565b60008060006060848603121561071557600080fd5b61071e846106ba565b925061072c602085016106ba565b9150604084013590509250925092565b60006020828403121561074e57600080fd5b610757826106ba565b9392505050565b60006020828403121561077057600080fd5b5035919050565b6000806040838503121561078a57600080fd5b610793836106ba565b91506107a1602084016106ba565b90509250929050565b600181811c908216806107be57607f821691505b6020821081036107de57634e487b7160e01b600052602260045260246000fd5b50919050565b634e487b7160e01b600052601160045260246000fd5b81810381811115610318576103186107e4565b80820180821115610318576103186107e4565b600181815b8085111561085b578160001904821115610841576108416107e4565b8085161561084e57918102915b93841c9390800290610825565b509250929050565b60008261087257506001610318565b8161087f57506000610318565b8160018114610895576002811461089f576108bb565b6001915050610318565b60ff8411156108b0576108b06107e4565b50506001821b610318565b5060208310610133831016604e8410600b84101617156108de575081810a610318565b6108e88383610820565b80600019048211156108fc576108fc6107e4565b029392505050565b600061075760ff841683610863565b8082028115828204841417610318576103186107e456fea2646970667358221220377fd0ee122d6009d644e68dd889f997532d560fdf1131aa2d2bd5bfc1fd318c64736f6c63430008110033",
    "sourcePath": "d:/contract/iotabee_test/tt.sol",
    "compiler": {
        "name": "solc",
        "version": "0.8.17+commit.8df45f5f"
    },
    "functionHashes": {
        "allowance(address,address)": "dd62ed3e",
        "approve(address,uint256)": "095ea7b3",
        "balanceOf(address)": "70a08231",
        "decimals()": "313ce567",
        "faucet(address)": "b86d1d63",
        "faucetAmount()": "9c281430",
        "faucetLastOf(address)": "7dd8786f",
        "mint(uint256)": "a0712d68",
        "minter()": "07546172",
        "name()": "06fdde03",
        "setFaucetAmount(uint256)": "81d2fd9c",
        "symbol()": "95d89b41",
        "totalSupply()": "18160ddd",
        "transfer(address,uint256)": "a9059cbb",
        "transferFrom(address,address,uint256)": "23b872dd"
    },
    "gasEstimates": {
        "creation": {
            "codeDepositCost": "480000",
            "executionCost": "infinite",
            "totalCost": "infinite"
        },
        "external": {
            "allowance(address,address)": "infinite",
            "approve(address,uint256)": "24596",
            "balanceOf(address)": "2608",
            "decimals()": "2380",
            "faucet(address)": "infinite",
            "faucetAmount()": "2384",
            "faucetLastOf(address)": "2542",
            "mint(uint256)": "30312",
            "minter()": "2383",
            "name()": "infinite",
            "setFaucetAmount(uint256)": "24586",
            "symbol()": "infinite",
            "totalSupply()": "2318",
            "transfer(address,uint256)": "infinite",
            "transferFrom(address,address,uint256)": "infinite"
        },
        "internal": {
            "_approve(address,address,uint256)": "infinite",
            "_transfer(address,address,uint256)": "infinite"
        }
    }
}