{
  "_format": "hh-sol-artifact-1",
  "contractName": "MultiSignWallet",
  "sourceName": "contracts/multiSignWallet.sol",
  "abi": [
    {
      "inputs": [
        {
          "internalType": "address[]",
          "name": "_signers",
          "type": "address[]"
        },
        {
          "internalType": "uint8",
          "name": "_requireCount",
          "type": "uint8"
        }
      ],
      "stateMutability": "nonpayable",
      "type": "constructor"
    },
    {
      "anonymous": false,
      "inputs": [
        {
          "indexed": false,
          "internalType": "uint8",
          "name": "changeRequireCount",
          "type": "uint8"
        }
      ],
      "name": "ChangeRequireCount",
      "type": "event"
    },
    {
      "anonymous": false,
      "inputs": [
        {
          "indexed": true,
          "internalType": "address",
          "name": "sender",
          "type": "address"
        },
        {
          "indexed": false,
          "internalType": "uint256",
          "name": "amount",
          "type": "uint256"
        },
        {
          "indexed": false,
          "internalType": "bytes32",
          "name": "to",
          "type": "bytes32"
        },
        {
          "indexed": false,
          "internalType": "bytes32",
          "name": "chain",
          "type": "bytes32"
        }
      ],
      "name": "Deposit",
      "type": "event"
    },
    {
      "anonymous": false,
      "inputs": [
        {
          "indexed": true,
          "internalType": "address",
          "name": "signer",
          "type": "address"
        }
      ],
      "name": "SignerAddition",
      "type": "event"
    },
    {
      "anonymous": false,
      "inputs": [
        {
          "indexed": true,
          "internalType": "address",
          "name": "signer",
          "type": "address"
        }
      ],
      "name": "SignerRemoval",
      "type": "event"
    },
    {
      "inputs": [
        {
          "internalType": "address",
          "name": "signer",
          "type": "address"
        }
      ],
      "name": "addSigner",
      "outputs": [],
      "stateMutability": "nonpayable",
      "type": "function"
    },
    {
      "inputs": [],
      "name": "addingCount",
      "outputs": [
        {
          "internalType": "uint8",
          "name": "",
          "type": "uint8"
        }
      ],
      "stateMutability": "view",
      "type": "function"
    },
    {
      "inputs": [],
      "name": "addingSigner",
      "outputs": [
        {
          "internalType": "address",
          "name": "",
          "type": "address"
        }
      ],
      "stateMutability": "view",
      "type": "function"
    },
    {
      "inputs": [
        {
          "internalType": "uint8",
          "name": "newCount",
          "type": "uint8"
        }
      ],
      "name": "changeRequireCount",
      "outputs": [],
      "stateMutability": "nonpayable",
      "type": "function"
    },
    {
      "inputs": [],
      "name": "changingCount",
      "outputs": [
        {
          "internalType": "uint8",
          "name": "",
          "type": "uint8"
        }
      ],
      "stateMutability": "view",
      "type": "function"
    },
    {
      "inputs": [
        {
          "internalType": "bytes32",
          "name": "to",
          "type": "bytes32"
        },
        {
          "internalType": "bytes32",
          "name": "chain",
          "type": "bytes32"
        }
      ],
      "name": "deposit",
      "outputs": [],
      "stateMutability": "payable",
      "type": "function"
    },
    {
      "inputs": [
        {
          "internalType": "address",
          "name": "",
          "type": "address"
        },
        {
          "internalType": "address",
          "name": "",
          "type": "address"
        }
      ],
      "name": "isAdded",
      "outputs": [
        {
          "internalType": "bool",
          "name": "",
          "type": "bool"
        }
      ],
      "stateMutability": "view",
      "type": "function"
    },
    {
      "inputs": [
        {
          "internalType": "address",
          "name": "",
          "type": "address"
        }
      ],
      "name": "isChangeCount",
      "outputs": [
        {
          "internalType": "bool",
          "name": "",
          "type": "bool"
        }
      ],
      "stateMutability": "view",
      "type": "function"
    },
    {
      "inputs": [
        {
          "internalType": "address",
          "name": "",
          "type": "address"
        },
        {
          "internalType": "uint8",
          "name": "",
          "type": "uint8"
        }
      ],
      "name": "isRemoved",
      "outputs": [
        {
          "internalType": "bool",
          "name": "",
          "type": "bool"
        }
      ],
      "stateMutability": "view",
      "type": "function"
    },
    {
      "inputs": [],
      "name": "newRequireCount",
      "outputs": [
        {
          "internalType": "uint8",
          "name": "",
          "type": "uint8"
        }
      ],
      "stateMutability": "view",
      "type": "function"
    },
    {
      "inputs": [
        {
          "internalType": "uint8",
          "name": "index",
          "type": "uint8"
        }
      ],
      "name": "removeSigner",
      "outputs": [],
      "stateMutability": "nonpayable",
      "type": "function"
    },
    {
      "inputs": [],
      "name": "removingCount",
      "outputs": [
        {
          "internalType": "uint8",
          "name": "",
          "type": "uint8"
        }
      ],
      "stateMutability": "view",
      "type": "function"
    },
    {
      "inputs": [],
      "name": "removingIndex",
      "outputs": [
        {
          "internalType": "uint8",
          "name": "",
          "type": "uint8"
        }
      ],
      "stateMutability": "view",
      "type": "function"
    },
    {
      "inputs": [],
      "name": "requireCount",
      "outputs": [
        {
          "internalType": "uint8",
          "name": "",
          "type": "uint8"
        }
      ],
      "stateMutability": "view",
      "type": "function"
    },
    {
      "inputs": [
        {
          "internalType": "bytes32",
          "name": "txid",
          "type": "bytes32"
        },
        {
          "internalType": "uint256",
          "name": "amount",
          "type": "uint256"
        },
        {
          "internalType": "address payable",
          "name": "to",
          "type": "address"
        }
      ],
      "name": "send",
      "outputs": [],
      "stateMutability": "nonpayable",
      "type": "function"
    },
    {
      "inputs": [
        {
          "internalType": "uint256",
          "name": "",
          "type": "uint256"
        }
      ],
      "name": "signers",
      "outputs": [
        {
          "internalType": "address",
          "name": "",
          "type": "address"
        }
      ],
      "stateMutability": "view",
      "type": "function"
    }
  ],
  "bytecode": "0x60806040523480156200001157600080fd5b5060405162002a4b38038062002a4b83398181016040528101906200003791906200050d565b818160005b82518160ff161015620001f457600060016000858460ff168151811062000068576200006762000573565b5b602002602001015173ffffffffffffffffffffffffffffffffffffffff1673ffffffffffffffffffffffffffffffffffffffff16815260200190815260200160002060009054906101000a900460ff1660ff16148015620001165750600073ffffffffffffffffffffffffffffffffffffffff16838260ff1681518110620000f557620000f462000573565b5b602002602001015173ffffffffffffffffffffffffffffffffffffffff1614155b62000158576040517f08c379a00000000000000000000000000000000000000000000000000000000081526004016200014f9062000603565b60405180910390fd5b60018162000167919062000654565b60016000858460ff168151811062000184576200018362000573565b5b602002602001015173ffffffffffffffffffffffffffffffffffffffff1673ffffffffffffffffffffffffffffffffffffffff16815260200190815260200160002060006101000a81548160ff021916908360ff1602179055508080620001eb9062000690565b9150506200003c565b5081600090805190602001906200020d92919062000233565b5080600260006101000a81548160ff021916908360ff16021790555050505050620006be565b828054828255906000526020600020908101928215620002af579160200282015b82811115620002ae5782518260006101000a81548173ffffffffffffffffffffffffffffffffffffffff021916908373ffffffffffffffffffffffffffffffffffffffff1602179055509160200191906001019062000254565b5b509050620002be9190620002c2565b5090565b5b80821115620002dd576000816000905550600101620002c3565b5090565b6000604051905090565b600080fd5b600080fd5b600080fd5b6000601f19601f8301169050919050565b7f4e487b7100000000000000000000000000000000000000000000000000000000600052604160045260246000fd5b6200034582620002fa565b810181811067ffffffffffffffff821117156200036757620003666200030b565b5b80604052505050565b60006200037c620002e1565b90506200038a82826200033a565b919050565b600067ffffffffffffffff821115620003ad57620003ac6200030b565b5b602082029050602081019050919050565b600080fd5b600073ffffffffffffffffffffffffffffffffffffffff82169050919050565b6000620003f082620003c3565b9050919050565b6200040281620003e3565b81146200040e57600080fd5b50565b6000815190506200042281620003f7565b92915050565b60006200043f62000439846200038f565b62000370565b90508083825260208201905060208402830185811115620004655762000464620003be565b5b835b818110156200049257806200047d888262000411565b84526020840193505060208101905062000467565b5050509392505050565b600082601f830112620004b457620004b3620002f5565b5b8151620004c684826020860162000428565b91505092915050565b600060ff82169050919050565b620004e781620004cf565b8114620004f357600080fd5b50565b6000815190506200050781620004dc565b92915050565b60008060408385031215620005275762000526620002eb565b5b600083015167ffffffffffffffff811115620005485762000547620002f0565b5b62000556858286016200049c565b92505060206200056985828601620004f6565b9150509250929050565b7f4e487b7100000000000000000000000000000000000000000000000000000000600052603260045260246000fd5b600082825260208201905092915050565b7f696e76616c6964206f72206475706c696361746564207369676e657200000000600082015250565b6000620005eb601c83620005a2565b9150620005f882620005b3565b602082019050919050565b600060208201905081810360008301526200061e81620005dc565b9050919050565b7f4e487b7100000000000000000000000000000000000000000000000000000000600052601160045260246000fd5b60006200066182620004cf565b91506200066e83620004cf565b9250828201905060ff8111156200068a576200068962000625565b5b92915050565b60006200069d82620004cf565b915060ff8203620006b357620006b262000625565b5b600182019050919050565b61237d80620006ce6000396000f3fe6080604052600436106100f35760003560e01c80636561d53c1161008a578063a1ed637a11610059578063a1ed637a1461032c578063e9ceb85f14610357578063eb12d61e14610373578063f770a5db1461039c576100f3565b80636561d53c1461027057806368d02417146102ad57806383051fde146102d85780639bc5362e14610303576100f3565b80633d5655f8116100c65780633d5655f8146101c4578063458a3add146101ef5780635003b3331461021a57806354ca441614610245576100f3565b806307a4145b146100f8578063092d1148146101215780632079fb9a1461014a57806326fbcf9314610187575b600080fd5b34801561010457600080fd5b5061011f600480360381019061011a91906119d0565b6103d9565b005b34801561012d57600080fd5b5061014860048036038101906101439190611ac7565b610751565b005b34801561015657600080fd5b50610171600480360381019061016c9190611b1a565b610c56565b60405161017e9190611b68565b60405180910390f35b34801561019357600080fd5b506101ae60048036038101906101a99190611baf565b610c95565b6040516101bb9190611bf7565b60405180910390f35b3480156101d057600080fd5b506101d9610cb5565b6040516101e69190611b68565b60405180910390f35b3480156101fb57600080fd5b50610204610cdb565b6040516102119190611c21565b60405180910390f35b34801561022657600080fd5b5061022f610cee565b60405161023c9190611c21565b60405180910390f35b34801561025157600080fd5b5061025a610d01565b6040516102679190611c21565b60405180910390f35b34801561027c57600080fd5b5061029760048036038101906102929190611c3c565b610d14565b6040516102a49190611bf7565b60405180910390f35b3480156102b957600080fd5b506102c2610d43565b6040516102cf9190611c21565b60405180910390f35b3480156102e457600080fd5b506102ed610d56565b6040516102fa9190611c21565b60405180910390f35b34801561030f57600080fd5b5061032a600480360381019061032591906119d0565b610d69565b005b34801561033857600080fd5b5061034161130a565b60405161034e9190611c21565b60405180910390f35b610371600480360381019061036c9190611c7c565b61131d565b005b34801561037f57600080fd5b5061039a60048036038101906103959190611baf565b611373565b005b3480156103a857600080fd5b506103c360048036038101906103be9190611cbc565b611963565b6040516103d09190611bf7565b60405180910390f35b6000600160003373ffffffffffffffffffffffffffffffffffffffff1673ffffffffffffffffffffffffffffffffffffffff16815260200190815260200160002060009054906101000a900460ff1660ff161161046b576040517f08c379a000000000000000000000000000000000000000000000000000000000815260040161046290611d59565b60405180910390fd5b6000600660009054906101000a900460ff1660ff160361055e576000805490508160ff1611156104d0576040517f08c379a00000000000000000000000000000000000000000000000000000000081526004016104c790611dc5565b60405180910390fd5b8060ff16600660009054906101000a9050505060005b6000805490508160ff16101561055857600760003373ffffffffffffffffffffffffffffffffffffffff1673ffffffffffffffffffffffffffffffffffffffff16815260200190815260200160002060006101000a81549060ff0219169055808061055090611e14565b9150506104e6565b506105b6565b600660009054906101000a900460ff1660ff168160ff16146105b5576040517f08c379a00000000000000000000000000000000000000000000000000000000081526004016105ac90611e89565b60405180910390fd5b5b600760003373ffffffffffffffffffffffffffffffffffffffff1673ffffffffffffffffffffffffffffffffffffffff16815260200190815260200160002060009054906101000a900460ff16610698576001600760003373ffffffffffffffffffffffffffffffffffffffff1673ffffffffffffffffffffffffffffffffffffffff16815260200190815260200160002060006101000a81548160ff0219169083151502179055506006600181819054906101000a900460ff168092919061067e90611e14565b91906101000a81548160ff021916908360ff160217905550505b600260009054906101000a900460ff1660ff16600660019054906101000a900460ff1660ff161061074e5780600260006101000a81548160ff021916908360ff1602179055506000600660006101000a81548160ff021916908360ff1602179055506000600660016101000a81548160ff021916908360ff1602179055507f971ed33ab126ac4c0a07a18b84ed2990cde2ae87b25cd5009c84e7e5c9c8cffd816040516107459190611c21565b60405180910390a15b50565b6000600160003373ffffffffffffffffffffffffffffffffffffffff1673ffffffffffffffffffffffffffffffffffffffff16815260200190815260200160002060009054906101000a900460ff1660ff16116107e3576040517f08c379a00000000000000000000000000000000000000000000000000000000081526004016107da90611d59565b60405180910390fd5b6008600084815260200190815260200160002060030160009054906101000a900460ff1615610847576040517f08c379a000000000000000000000000000000000000000000000000000000000815260040161083e90611ef5565b60405180910390fd5b600073ffffffffffffffffffffffffffffffffffffffff166008600085815260200190815260200160002060010160009054906101000a900473ffffffffffffffffffffffffffffffffffffffff1673ffffffffffffffffffffffffffffffffffffffff16036109825760405180608001604052808381526020018273ffffffffffffffffffffffffffffffffffffffff1681526020016000815260200160001515815250600860008581526020019081526020016000206000820151816000015560208201518160010160006101000a81548173ffffffffffffffffffffffffffffffffffffffff021916908373ffffffffffffffffffffffffffffffffffffffff1602179055506040820151816002015560608201518160030160006101000a81548160ff021916908315150217905550905050610a48565b816008600085815260200190815260200160002060000154148015610a0857508073ffffffffffffffffffffffffffffffffffffffff166008600085815260200190815260200160002060010160009054906101000a900473ffffffffffffffffffffffffffffffffffffffff1673ffffffffffffffffffffffffffffffffffffffff16145b610a47576040517f08c379a0000000000000000000000000000000000000000000000000000000008152600401610a3e90611f61565b60405180910390fd5b5b600960003373ffffffffffffffffffffffffffffffffffffffff1673ffffffffffffffffffffffffffffffffffffffff168152602001908152602001600020600084815260200190815260200160002060009054906101000a900460ff16610b40576001600960003373ffffffffffffffffffffffffffffffffffffffff1673ffffffffffffffffffffffffffffffffffffffff168152602001908152602001600020600085815260200190815260200160002060006101000a81548160ff021916908315150217905550600860008481526020019081526020016000206002016000815480929190610b3a90611f81565b91905055505b600260009054906101000a900460ff1660ff16600860008581526020019081526020016000206002015410610c505760016008600085815260200190815260200160002060030160006101000a81548160ff02191690831515021790555060008173ffffffffffffffffffffffffffffffffffffffff1683604051610bc490611ffa565b60006040518083038185875af1925050503d8060008114610c01576040519150601f19603f3d011682016040523d82523d6000602084013e610c06565b606091505b5050905080610c4a576040517f08c379a0000000000000000000000000000000000000000000000000000000008152600401610c419061205b565b60405180910390fd5b50610c51565b5b505050565b60008181548110610c6657600080fd5b906000526020600020016000915054906101000a900473ffffffffffffffffffffffffffffffffffffffff1681565b60076020528060005260406000206000915054906101000a900460ff1681565b600260019054906101000a900473ffffffffffffffffffffffffffffffffffffffff1681565b600660009054906101000a900460ff1681565b600460009054906101000a900460ff1681565b600660019054906101000a900460ff1681565b60056020528160005260406000206020528060005260406000206000915091509054906101000a900460ff1681565b600460019054906101000a900460ff1681565b600260009054906101000a900460ff1681565b6000600160003373ffffffffffffffffffffffffffffffffffffffff1673ffffffffffffffffffffffffffffffffffffffff16815260200190815260200160002060009054906101000a900460ff1660ff1611610dfb576040517f08c379a0000000000000000000000000000000000000000000000000000000008152600401610df290611d59565b60405180910390fd5b6000600460009054906101000a900460ff1660ff1603610f04576000805490508160ff1610610e5f576040517f08c379a0000000000000000000000000000000000000000000000000000000008152600401610e56906120c7565b60405180910390fd5b8060ff16600460009054906101000a9050505060005b6000805490508160ff161015610efe57600560003373ffffffffffffffffffffffffffffffffffffffff1673ffffffffffffffffffffffffffffffffffffffff16815260200190815260200160002060008260ff1660ff16815260200190815260200160002060006101000a81549060ff02191690558080610ef690611e14565b915050610e75565b50610f5c565b8060ff16600460009054906101000a900460ff1660ff1614610f5b576040517f08c379a0000000000000000000000000000000000000000000000000000000008152600401610f5290612133565b60405180910390fd5b5b600560003373ffffffffffffffffffffffffffffffffffffffff1673ffffffffffffffffffffffffffffffffffffffff16815260200190815260200160002060008260ff1660ff16815260200190815260200160002060009054906101000a900460ff1661106c576001600560003373ffffffffffffffffffffffffffffffffffffffff1673ffffffffffffffffffffffffffffffffffffffff16815260200190815260200160002060008360ff1660ff16815260200190815260200160002060006101000a81548160ff0219169083151502179055506004600181819054906101000a900460ff168092919061105290611e14565b91906101000a81548160ff021916908360ff160217905550505b600260009054906101000a900460ff1660ff16600460019054906101000a900460ff1660ff1610611307576000808260ff16815481106110af576110ae612153565b5b9060005260206000200160009054906101000a900473ffffffffffffffffffffffffffffffffffffffff16905060008060016000805490506110f19190612182565b8154811061110257611101612153565b5b9060005260206000200160009054906101000a900473ffffffffffffffffffffffffffffffffffffffff1690508060008460ff168154811061114757611146612153565b5b9060005260206000200160006101000a81548173ffffffffffffffffffffffffffffffffffffffff021916908373ffffffffffffffffffffffffffffffffffffffff16021790555060018361119c91906121b6565b600160008373ffffffffffffffffffffffffffffffffffffffff1673ffffffffffffffffffffffffffffffffffffffff16815260200190815260200160002060006101000a81548160ff021916908360ff160217905550600160008373ffffffffffffffffffffffffffffffffffffffff1673ffffffffffffffffffffffffffffffffffffffff16815260200190815260200160002060006101000a81549060ff02191690556000805480611254576112536121eb565b5b6001900381819060005260206000200160006101000a81549073ffffffffffffffffffffffffffffffffffffffff021916905590556000600460006101000a81548160ff021916908360ff1602179055506000600460016101000a81548160ff021916908360ff1602179055508173ffffffffffffffffffffffffffffffffffffffff167fa2a6e2b8f0cf0f627456034557b0149227a355af53f5bc8ce7e496bfbe73c0a960405160405180910390a250505b50565b600260159054906101000a900460ff1681565b3373ffffffffffffffffffffffffffffffffffffffff167fa3ac334776aca8fe808f5c1634b30338e4789e218a9f82700019b6647df54d5e34848460405161136793929190612238565b60405180910390a25050565b6000600160003373ffffffffffffffffffffffffffffffffffffffff1673ffffffffffffffffffffffffffffffffffffffff16815260200190815260200160002060009054906101000a900460ff1660ff1611611405576040517f08c379a00000000000000000000000000000000000000000000000000000000081526004016113fc90611d59565b60405180910390fd5b600073ffffffffffffffffffffffffffffffffffffffff16600260019054906101000a900473ffffffffffffffffffffffffffffffffffffffff1673ffffffffffffffffffffffffffffffffffffffff16036115e6576000600160008373ffffffffffffffffffffffffffffffffffffffff1673ffffffffffffffffffffffffffffffffffffffff16815260200190815260200160002060009054906101000a900460ff1660ff16146114ed576040517f08c379a00000000000000000000000000000000000000000000000000000000081526004016114e4906122bb565b60405180910390fd5b80600260016101000a81548173ffffffffffffffffffffffffffffffffffffffff021916908373ffffffffffffffffffffffffffffffffffffffff16021790555060005b6000805490508160ff1610156115e057600360003373ffffffffffffffffffffffffffffffffffffffff1673ffffffffffffffffffffffffffffffffffffffff16815260200190815260200160002060008373ffffffffffffffffffffffffffffffffffffffff1673ffffffffffffffffffffffffffffffffffffffff16815260200190815260200160002060006101000a81549060ff021916905580806115d890611e14565b915050611531565b50611677565b8073ffffffffffffffffffffffffffffffffffffffff16600260019054906101000a900473ffffffffffffffffffffffffffffffffffffffff1673ffffffffffffffffffffffffffffffffffffffff1614611676576040517f08c379a000000000000000000000000000000000000000000000000000000000815260040161166d90612327565b60405180910390fd5b5b600360003373ffffffffffffffffffffffffffffffffffffffff1673ffffffffffffffffffffffffffffffffffffffff16815260200190815260200160002060008273ffffffffffffffffffffffffffffffffffffffff1673ffffffffffffffffffffffffffffffffffffffff16815260200190815260200160002060009054906101000a900460ff166117d3576001600360003373ffffffffffffffffffffffffffffffffffffffff1673ffffffffffffffffffffffffffffffffffffffff16815260200190815260200160002060008373ffffffffffffffffffffffffffffffffffffffff1673ffffffffffffffffffffffffffffffffffffffff16815260200190815260200160002060006101000a81548160ff0219169083151502179055506002601581819054906101000a900460ff16809291906117b990611e14565b91906101000a81548160ff021916908360ff160217905550505b600260009054906101000a900460ff1660ff16600260159054906101000a900460ff1660ff1610611960576000819080600181540180825580915050600190039060005260206000200160009091909190916101000a81548173ffffffffffffffffffffffffffffffffffffffff021916908373ffffffffffffffffffffffffffffffffffffffff160217905550600080549050600160008373ffffffffffffffffffffffffffffffffffffffff1673ffffffffffffffffffffffffffffffffffffffff16815260200190815260200160002060006101000a81548160ff021916908360ff1602179055506000600260016101000a81548173ffffffffffffffffffffffffffffffffffffffff021916908373ffffffffffffffffffffffffffffffffffffffff1602179055506000600260156101000a81548160ff021916908360ff1602179055508073ffffffffffffffffffffffffffffffffffffffff167f8191ca9d665b824fc53160f3727e7ec3a5330e4a67e1db6c4a86678956dfef1960405160405180910390a25b50565b60036020528160005260406000206020528060005260406000206000915091509054906101000a900460ff1681565b600080fd5b600060ff82169050919050565b6119ad81611997565b81146119b857600080fd5b50565b6000813590506119ca816119a4565b92915050565b6000602082840312156119e6576119e5611992565b5b60006119f4848285016119bb565b91505092915050565b6000819050919050565b611a10816119fd565b8114611a1b57600080fd5b50565b600081359050611a2d81611a07565b92915050565b6000819050919050565b611a4681611a33565b8114611a5157600080fd5b50565b600081359050611a6381611a3d565b92915050565b600073ffffffffffffffffffffffffffffffffffffffff82169050919050565b6000611a9482611a69565b9050919050565b611aa481611a89565b8114611aaf57600080fd5b50565b600081359050611ac181611a9b565b92915050565b600080600060608486031215611ae057611adf611992565b5b6000611aee86828701611a1e565b9350506020611aff86828701611a54565b9250506040611b1086828701611ab2565b9150509250925092565b600060208284031215611b3057611b2f611992565b5b6000611b3e84828501611a54565b91505092915050565b6000611b5282611a69565b9050919050565b611b6281611b47565b82525050565b6000602082019050611b7d6000830184611b59565b92915050565b611b8c81611b47565b8114611b9757600080fd5b50565b600081359050611ba981611b83565b92915050565b600060208284031215611bc557611bc4611992565b5b6000611bd384828501611b9a565b91505092915050565b60008115159050919050565b611bf181611bdc565b82525050565b6000602082019050611c0c6000830184611be8565b92915050565b611c1b81611997565b82525050565b6000602082019050611c366000830184611c12565b92915050565b60008060408385031215611c5357611c52611992565b5b6000611c6185828601611b9a565b9250506020611c72858286016119bb565b9150509250929050565b60008060408385031215611c9357611c92611992565b5b6000611ca185828601611a1e565b9250506020611cb285828601611a1e565b9150509250929050565b60008060408385031215611cd357611cd2611992565b5b6000611ce185828601611b9a565b9250506020611cf285828601611b9a565b9150509250929050565b600082825260208201905092915050565b7f6e6f74207369676e657200000000000000000000000000000000000000000000600082015250565b6000611d43600a83611cfc565b9150611d4e82611d0d565b602082019050919050565b60006020820190508181036000830152611d7281611d36565b9050919050565b7f77726f6e6720636f756e74000000000000000000000000000000000000000000600082015250565b6000611daf600b83611cfc565b9150611dba82611d79565b602082019050919050565b60006020820190508181036000830152611dde81611da2565b9050919050565b7f4e487b7100000000000000000000000000000000000000000000000000000000600052601160045260246000fd5b6000611e1f82611997565b915060ff8203611e3257611e31611de5565b5b600182019050919050565b7f6d69736d61746368656420636f756e7400000000000000000000000000000000600082015250565b6000611e73601083611cfc565b9150611e7e82611e3d565b602082019050919050565b60006020820190508181036000830152611ea281611e66565b9050919050565b7f73656e74206f7665720000000000000000000000000000000000000000000000600082015250565b6000611edf600983611cfc565b9150611eea82611ea9565b602082019050919050565b60006020820190508181036000830152611f0e81611ed2565b9050919050565b7f696e76616c6964207472616e7366657200000000000000000000000000000000600082015250565b6000611f4b601083611cfc565b9150611f5682611f15565b602082019050919050565b60006020820190508181036000830152611f7a81611f3e565b9050919050565b6000611f8c82611a33565b91507fffffffffffffffffffffffffffffffffffffffffffffffffffffffffffffffff8203611fbe57611fbd611de5565b5b600182019050919050565b600081905092915050565b50565b6000611fe4600083611fc9565b9150611fef82611fd4565b600082019050919050565b600061200582611fd7565b9150819050919050565b7f7472616e73666572206661696c65640000000000000000000000000000000000600082015250565b6000612045600f83611cfc565b91506120508261200f565b602082019050919050565b6000602082019050818103600083015261207481612038565b9050919050565b7f77726f6e6720696e646578000000000000000000000000000000000000000000600082015250565b60006120b1600b83611cfc565b91506120bc8261207b565b602082019050919050565b600060208201905081810360008301526120e0816120a4565b9050919050565b7f6d69736d61746368656420696e64657800000000000000000000000000000000600082015250565b600061211d601083611cfc565b9150612128826120e7565b602082019050919050565b6000602082019050818103600083015261214c81612110565b9050919050565b7f4e487b7100000000000000000000000000000000000000000000000000000000600052603260045260246000fd5b600061218d82611a33565b915061219883611a33565b92508282039050818111156121b0576121af611de5565b5b92915050565b60006121c182611997565b91506121cc83611997565b9250828201905060ff8111156121e5576121e4611de5565b5b92915050565b7f4e487b7100000000000000000000000000000000000000000000000000000000600052603160045260246000fd5b61222381611a33565b82525050565b612232816119fd565b82525050565b600060608201905061224d600083018661221a565b61225a6020830185612229565b6122676040830184612229565b949350505050565b7f616c726561647920657869737400000000000000000000000000000000000000600082015250565b60006122a5600d83611cfc565b91506122b08261226f565b602082019050919050565b600060208201905081810360008301526122d481612298565b9050919050565b7f77726f6e67207369676e65720000000000000000000000000000000000000000600082015250565b6000612311600c83611cfc565b915061231c826122db565b602082019050919050565b6000602082019050818103600083015261234081612304565b905091905056fea264697066735822122080e2e0587fdf635e6e967d80c37215a41c45f0a83ac1baaa3b986388a0c2df4964736f6c63430008110033",
  "linkReferences": {},
  "deployedLinkReferences": {}
}