{
  "_format": "hh-sol-artifact-1",
  "contractName": "TokenERC20",
  "sourceName": "contracts/tt.sol",
  "abi": [
    {
      "inputs": [
        {
          "internalType": "string",
          "name": "_name",
          "type": "string"
        },
        {
          "internalType": "string",
          "name": "_symbol",
          "type": "string"
        },
        {
          "internalType": "uint8",
          "name": "d",
          "type": "uint8"
        }
      ],
      "stateMutability": "nonpayable",
      "type": "constructor"
    },
    {
      "anonymous": false,
      "inputs": [
        {
          "indexed": true,
          "internalType": "address",
          "name": "owner",
          "type": "address"
        },
        {
          "indexed": true,
          "internalType": "address",
          "name": "spender",
          "type": "address"
        },
        {
          "indexed": false,
          "internalType": "uint256",
          "name": "value",
          "type": "uint256"
        }
      ],
      "name": "Approval",
      "type": "event"
    },
    {
      "anonymous": false,
      "inputs": [
        {
          "indexed": true,
          "internalType": "address",
          "name": "sender",
          "type": "address"
        },
        {
          "indexed": true,
          "internalType": "address",
          "name": "to",
          "type": "address"
        },
        {
          "indexed": false,
          "internalType": "uint256",
          "name": "amount",
          "type": "uint256"
        }
      ],
      "name": "Faucet",
      "type": "event"
    },
    {
      "anonymous": false,
      "inputs": [
        {
          "indexed": true,
          "internalType": "address",
          "name": "sender",
          "type": "address"
        },
        {
          "indexed": false,
          "internalType": "uint256",
          "name": "amount",
          "type": "uint256"
        }
      ],
      "name": "Mint",
      "type": "event"
    },
    {
      "anonymous": false,
      "inputs": [
        {
          "indexed": true,
          "internalType": "address",
          "name": "from",
          "type": "address"
        },
        {
          "indexed": true,
          "internalType": "address",
          "name": "to",
          "type": "address"
        },
        {
          "indexed": false,
          "internalType": "uint256",
          "name": "value",
          "type": "uint256"
        }
      ],
      "name": "Transfer",
      "type": "event"
    },
    {
      "inputs": [
        {
          "internalType": "address",
          "name": "",
          "type": "address"
        },
        {
          "internalType": "address",
          "name": "",
          "type": "address"
        }
      ],
      "name": "allowance",
      "outputs": [
        {
          "internalType": "uint256",
          "name": "",
          "type": "uint256"
        }
      ],
      "stateMutability": "view",
      "type": "function"
    },
    {
      "inputs": [
        {
          "internalType": "address",
          "name": "spender",
          "type": "address"
        },
        {
          "internalType": "uint256",
          "name": "value",
          "type": "uint256"
        }
      ],
      "name": "approve",
      "outputs": [
        {
          "internalType": "bool",
          "name": "",
          "type": "bool"
        }
      ],
      "stateMutability": "nonpayable",
      "type": "function"
    },
    {
      "inputs": [
        {
          "internalType": "address",
          "name": "",
          "type": "address"
        }
      ],
      "name": "balanceOf",
      "outputs": [
        {
          "internalType": "uint256",
          "name": "",
          "type": "uint256"
        }
      ],
      "stateMutability": "view",
      "type": "function"
    },
    {
      "inputs": [],
      "name": "decimals",
      "outputs": [
        {
          "internalType": "uint8",
          "name": "",
          "type": "uint8"
        }
      ],
      "stateMutability": "view",
      "type": "function"
    },
    {
      "inputs": [
        {
          "internalType": "address",
          "name": "to",
          "type": "address"
        }
      ],
      "name": "faucet",
      "outputs": [
        {
          "internalType": "bool",
          "name": "",
          "type": "bool"
        }
      ],
      "stateMutability": "nonpayable",
      "type": "function"
    },
    {
      "inputs": [],
      "name": "faucetAmount",
      "outputs": [
        {
          "internalType": "uint256",
          "name": "",
          "type": "uint256"
        }
      ],
      "stateMutability": "view",
      "type": "function"
    },
    {
      "inputs": [
        {
          "internalType": "address",
          "name": "",
          "type": "address"
        }
      ],
      "name": "faucetLastOf",
      "outputs": [
        {
          "internalType": "uint256",
          "name": "",
          "type": "uint256"
        }
      ],
      "stateMutability": "view",
      "type": "function"
    },
    {
      "inputs": [
        {
          "internalType": "uint256",
          "name": "amount",
          "type": "uint256"
        }
      ],
      "name": "mint",
      "outputs": [],
      "stateMutability": "nonpayable",
      "type": "function"
    },
    {
      "inputs": [],
      "name": "minter",
      "outputs": [
        {
          "internalType": "address",
          "name": "",
          "type": "address"
        }
      ],
      "stateMutability": "view",
      "type": "function"
    },
    {
      "inputs": [],
      "name": "name",
      "outputs": [
        {
          "internalType": "string",
          "name": "",
          "type": "string"
        }
      ],
      "stateMutability": "view",
      "type": "function"
    },
    {
      "inputs": [
        {
          "internalType": "uint256",
          "name": "amount",
          "type": "uint256"
        }
      ],
      "name": "setFaucetAmount",
      "outputs": [
        {
          "internalType": "bool",
          "name": "",
          "type": "bool"
        }
      ],
      "stateMutability": "nonpayable",
      "type": "function"
    },
    {
      "inputs": [],
      "name": "symbol",
      "outputs": [
        {
          "internalType": "string",
          "name": "",
          "type": "string"
        }
      ],
      "stateMutability": "view",
      "type": "function"
    },
    {
      "inputs": [],
      "name": "totalSupply",
      "outputs": [
        {
          "internalType": "uint256",
          "name": "",
          "type": "uint256"
        }
      ],
      "stateMutability": "view",
      "type": "function"
    },
    {
      "inputs": [
        {
          "internalType": "address",
          "name": "to",
          "type": "address"
        },
        {
          "internalType": "uint256",
          "name": "value",
          "type": "uint256"
        }
      ],
      "name": "transfer",
      "outputs": [
        {
          "internalType": "bool",
          "name": "",
          "type": "bool"
        }
      ],
      "stateMutability": "nonpayable",
      "type": "function"
    },
    {
      "inputs": [
        {
          "internalType": "address",
          "name": "from",
          "type": "address"
        },
        {
          "internalType": "address",
          "name": "to",
          "type": "address"
        },
        {
          "internalType": "uint256",
          "name": "value",
          "type": "uint256"
        }
      ],
      "name": "transferFrom",
      "outputs": [
        {
          "internalType": "bool",
          "name": "",
          "type": "bool"
        }
      ],
      "stateMutability": "nonpayable",
      "type": "function"
    }
  ],
  "bytecode": "0x60806040526040518060400160405280600f81526020017f536f6f6e207465737420746f6b656e0000000000000000000000000000000000815250600090816200004a919062000456565b506040518060400160405280600881526020017f534f4f4e746573740000000000000000000000000000000000000000000000008152506001908162000091919062000456565b506012600260006101000a81548160ff021916908360ff1602179055506064600855348015620000c057600080fd5b5060405162001c3f38038062001c3f8339818101604052810190620000e69190620006df565b80600a620000f59190620008fc565b6402540be4006200010791906200094d565b600381905550600354600560003373ffffffffffffffffffffffffffffffffffffffff1673ffffffffffffffffffffffffffffffffffffffff1681526020019081526020016000208190555033600460006101000a81548173ffffffffffffffffffffffffffffffffffffffff021916908373ffffffffffffffffffffffffffffffffffffffff1602179055508260009081620001a5919062000456565b508160019081620001b7919062000456565b5080600260006101000a81548160ff021916908360ff16021790555050505062000998565b600081519050919050565b7f4e487b7100000000000000000000000000000000000000000000000000000000600052604160045260246000fd5b7f4e487b7100000000000000000000000000000000000000000000000000000000600052602260045260246000fd5b600060028204905060018216806200025e57607f821691505b60208210810362000274576200027362000216565b5b50919050565b60008190508160005260206000209050919050565b60006020601f8301049050919050565b600082821b905092915050565b600060088302620002de7fffffffffffffffffffffffffffffffffffffffffffffffffffffffffffffffff826200029f565b620002ea86836200029f565b95508019841693508086168417925050509392505050565b6000819050919050565b6000819050919050565b600062000337620003316200032b8462000302565b6200030c565b62000302565b9050919050565b6000819050919050565b620003538362000316565b6200036b62000362826200033e565b848454620002ac565b825550505050565b600090565b6200038262000373565b6200038f81848462000348565b505050565b5b81811015620003b757620003ab60008262000378565b60018101905062000395565b5050565b601f8211156200040657620003d0816200027a565b620003db846200028f565b81016020851015620003eb578190505b62000403620003fa856200028f565b83018262000394565b50505b505050565b600082821c905092915050565b60006200042b600019846008026200040b565b1980831691505092915050565b600062000446838362000418565b9150826002028217905092915050565b6200046182620001dc565b67ffffffffffffffff8111156200047d576200047c620001e7565b5b62000489825462000245565b62000496828285620003bb565b600060209050601f831160018114620004ce5760008415620004b9578287015190505b620004c5858262000438565b86555062000535565b601f198416620004de866200027a565b60005b828110156200050857848901518255600182019150602085019450602081019050620004e1565b8683101562000528578489015162000524601f89168262000418565b8355505b6001600288020188555050505b505050505050565b6000604051905090565b600080fd5b600080fd5b600080fd5b600080fd5b6000601f19601f8301169050919050565b62000577826200055b565b810181811067ffffffffffffffff82111715620005995762000598620001e7565b5b80604052505050565b6000620005ae6200053d565b9050620005bc82826200056c565b919050565b600067ffffffffffffffff821115620005df57620005de620001e7565b5b620005ea826200055b565b9050602081019050919050565b60005b8381101562000617578082015181840152602081019050620005fa565b60008484015250505050565b60006200063a6200063484620005c1565b620005a2565b90508281526020810184848401111562000659576200065862000556565b5b62000666848285620005f7565b509392505050565b600082601f83011262000686576200068562000551565b5b81516200069884826020860162000623565b91505092915050565b600060ff82169050919050565b620006b981620006a1565b8114620006c557600080fd5b50565b600081519050620006d981620006ae565b92915050565b600080600060608486031215620006fb57620006fa62000547565b5b600084015167ffffffffffffffff8111156200071c576200071b6200054c565b5b6200072a868287016200066e565b935050602084015167ffffffffffffffff8111156200074e576200074d6200054c565b5b6200075c868287016200066e565b92505060406200076f86828701620006c8565b9150509250925092565b7f4e487b7100000000000000000000000000000000000000000000000000000000600052601160045260246000fd5b60008160011c9050919050565b6000808291508390505b60018511156200080757808604811115620007df57620007de62000779565b5b6001851615620007ef5780820291505b8081029050620007ff85620007a8565b9450620007bf565b94509492505050565b600082620008225760019050620008f5565b81620008325760009050620008f5565b81600181146200084b576002811462000856576200088c565b6001915050620008f5565b60ff8411156200086b576200086a62000779565b5b8360020a91508482111562000885576200088462000779565b5b50620008f5565b5060208310610133831016604e8410600b8410161715620008c65782820a905083811115620008c057620008bf62000779565b5b620008f5565b620008d58484846001620007b5565b92509050818404811115620008ef57620008ee62000779565b5b81810290505b9392505050565b6000620009098262000302565b91506200091683620006a1565b9250620009457fffffffffffffffffffffffffffffffffffffffffffffffffffffffffffffffff848462000810565b905092915050565b60006200095a8262000302565b9150620009678362000302565b9250828202620009778162000302565b9150828204841483151762000991576200099062000779565b5b5092915050565b61129780620009a86000396000f3fe608060405234801561001057600080fd5b50600436106100f55760003560e01c80637dd8786f11610097578063a0712d6811610066578063a0712d681461029e578063a9059cbb146102ba578063b86d1d63146102ea578063dd62ed3e1461031a576100f5565b80637dd8786f1461020257806381d2fd9c1461023257806395d89b41146102625780639c28143014610280576100f5565b806318160ddd116100d357806318160ddd1461016657806323b872dd14610184578063313ce567146101b457806370a08231146101d2576100f5565b806306fdde03146100fa5780630754617214610118578063095ea7b314610136575b600080fd5b61010261034a565b60405161010f9190610c95565b60405180910390f35b6101206103d8565b60405161012d9190610cf8565b60405180910390f35b610150600480360381019061014b9190610d7a565b6103fe565b60405161015d9190610dd5565b60405180910390f35b61016e610415565b60405161017b9190610dff565b60405180910390f35b61019e60048036038101906101999190610e1a565b61041b565b6040516101ab9190610dd5565b60405180910390f35b6101bc61056a565b6040516101c99190610e89565b60405180910390f35b6101ec60048036038101906101e79190610ea4565b61057d565b6040516101f99190610dff565b60405180910390f35b61021c60048036038101906102179190610ea4565b610595565b6040516102299190610dff565b60405180910390f35b61024c60048036038101906102479190610ed1565b6105ad565b6040516102599190610dd5565b60405180910390f35b61026a610619565b6040516102779190610c95565b60405180910390f35b6102886106a7565b6040516102959190610dff565b60405180910390f35b6102b860048036038101906102b39190610ed1565b6106ad565b005b6102d460048036038101906102cf9190610d7a565b6107e9565b6040516102e19190610dd5565b60405180910390f35b61030460048036038101906102ff9190610ea4565b610800565b6040516103119190610dd5565b60405180910390f35b610334600480360381019061032f9190610efe565b6109df565b6040516103419190610dff565b60405180910390f35b6000805461035790610f6d565b80601f016020809104026020016040519081016040528092919081815260200182805461038390610f6d565b80156103d05780601f106103a5576101008083540402835291602001916103d0565b820191906000526020600020905b8154815290600101906020018083116103b357829003601f168201915b505050505081565b600460009054906101000a900473ffffffffffffffffffffffffffffffffffffffff1681565b600061040b338484610a04565b6001905092915050565b60035481565b60007fffffffffffffffffffffffffffffffffffffffffffffffffffffffffffffffff600660008673ffffffffffffffffffffffffffffffffffffffff1673ffffffffffffffffffffffffffffffffffffffff16815260200190815260200160002060003373ffffffffffffffffffffffffffffffffffffffff1673ffffffffffffffffffffffffffffffffffffffff16815260200190815260200160002054146105545781600660008673ffffffffffffffffffffffffffffffffffffffff1673ffffffffffffffffffffffffffffffffffffffff16815260200190815260200160002060003373ffffffffffffffffffffffffffffffffffffffff1673ffffffffffffffffffffffffffffffffffffffff168152602001908152602001600020600082825461054c9190610fcd565b925050819055505b61055f848484610aef565b600190509392505050565b600260009054906101000a900460ff1681565b60056020528060005260406000206000915090505481565b60076020528060005260406000206000915090505481565b60003373ffffffffffffffffffffffffffffffffffffffff16600460009054906101000a900473ffffffffffffffffffffffffffffffffffffffff1673ffffffffffffffffffffffffffffffffffffffff161461060957600080fd5b8160088190555060019050919050565b6001805461062690610f6d565b80601f016020809104026020016040519081016040528092919081815260200182805461065290610f6d565b801561069f5780601f106106745761010080835404028352916020019161069f565b820191906000526020600020905b81548152906001019060200180831161068257829003601f168201915b505050505081565b60085481565b3373ffffffffffffffffffffffffffffffffffffffff16600460009054906101000a900473ffffffffffffffffffffffffffffffffffffffff1673ffffffffffffffffffffffffffffffffffffffff161461070757600080fd5b80600360008282546107199190611001565b925050819055508060056000600460009054906101000a900473ffffffffffffffffffffffffffffffffffffffff1673ffffffffffffffffffffffffffffffffffffffff1673ffffffffffffffffffffffffffffffffffffffff16815260200190815260200160002060008282546107919190611001565b925050819055503373ffffffffffffffffffffffffffffffffffffffff167f0f6798a560793a54c3bcfe86a93cde1e73087d944c0ea20544137d4121396885826040516107de9190610dff565b60405180910390a250565b60006107f6338484610aef565b6001905092915050565b6000610258600760008473ffffffffffffffffffffffffffffffffffffffff1673ffffffffffffffffffffffffffffffffffffffff1681526020019081526020016000205461084f9190611001565b4211610890576040517f08c379a000000000000000000000000000000000000000000000000000000000815260040161088790611081565b60405180910390fd5b6000600260009054906101000a900460ff16600a6108ae91906111d4565b6008546108bb919061121f565b905080600560008573ffffffffffffffffffffffffffffffffffffffff1673ffffffffffffffffffffffffffffffffffffffff168152602001908152602001600020600082825461090c9190611001565b9250508190555080600360008282546109259190611001565b9250508190555042600760008573ffffffffffffffffffffffffffffffffffffffff1673ffffffffffffffffffffffffffffffffffffffff168152602001908152602001600020819055508273ffffffffffffffffffffffffffffffffffffffff163373ffffffffffffffffffffffffffffffffffffffff167f8df9ef7404c42e7288b0a32e4eabb433f845a4bbdf35bec2b0aebf43ca498d0c836040516109cd9190610dff565b60405180910390a36001915050919050565b6006602052816000526040600020602052806000526040600020600091509150505481565b80600660008573ffffffffffffffffffffffffffffffffffffffff1673ffffffffffffffffffffffffffffffffffffffff16815260200190815260200160002060008473ffffffffffffffffffffffffffffffffffffffff1673ffffffffffffffffffffffffffffffffffffffff168152602001908152602001600020819055508173ffffffffffffffffffffffffffffffffffffffff168373ffffffffffffffffffffffffffffffffffffffff167f8c5be1e5ebec7d5bd14f71427d1e84f3dd0314c0f7b2291e5b200ac8c7c3b92583604051610ae29190610dff565b60405180910390a3505050565b80600560008573ffffffffffffffffffffffffffffffffffffffff1673ffffffffffffffffffffffffffffffffffffffff1681526020019081526020016000206000828254610b3e9190610fcd565b9250508190555080600560008473ffffffffffffffffffffffffffffffffffffffff1673ffffffffffffffffffffffffffffffffffffffff1681526020019081526020016000206000828254610b949190611001565b925050819055508173ffffffffffffffffffffffffffffffffffffffff168373ffffffffffffffffffffffffffffffffffffffff167fddf252ad1be2c89b69c2b068fc378daa952ba7f163c4a11628f55a4df523b3ef83604051610bf89190610dff565b60405180910390a3505050565b600081519050919050565b600082825260208201905092915050565b60005b83811015610c3f578082015181840152602081019050610c24565b60008484015250505050565b6000601f19601f8301169050919050565b6000610c6782610c05565b610c718185610c10565b9350610c81818560208601610c21565b610c8a81610c4b565b840191505092915050565b60006020820190508181036000830152610caf8184610c5c565b905092915050565b600073ffffffffffffffffffffffffffffffffffffffff82169050919050565b6000610ce282610cb7565b9050919050565b610cf281610cd7565b82525050565b6000602082019050610d0d6000830184610ce9565b92915050565b600080fd5b610d2181610cd7565b8114610d2c57600080fd5b50565b600081359050610d3e81610d18565b92915050565b6000819050919050565b610d5781610d44565b8114610d6257600080fd5b50565b600081359050610d7481610d4e565b92915050565b60008060408385031215610d9157610d90610d13565b5b6000610d9f85828601610d2f565b9250506020610db085828601610d65565b9150509250929050565b60008115159050919050565b610dcf81610dba565b82525050565b6000602082019050610dea6000830184610dc6565b92915050565b610df981610d44565b82525050565b6000602082019050610e146000830184610df0565b92915050565b600080600060608486031215610e3357610e32610d13565b5b6000610e4186828701610d2f565b9350506020610e5286828701610d2f565b9250506040610e6386828701610d65565b9150509250925092565b600060ff82169050919050565b610e8381610e6d565b82525050565b6000602082019050610e9e6000830184610e7a565b92915050565b600060208284031215610eba57610eb9610d13565b5b6000610ec884828501610d2f565b91505092915050565b600060208284031215610ee757610ee6610d13565b5b6000610ef584828501610d65565b91505092915050565b60008060408385031215610f1557610f14610d13565b5b6000610f2385828601610d2f565b9250506020610f3485828601610d2f565b9150509250929050565b7f4e487b7100000000000000000000000000000000000000000000000000000000600052602260045260246000fd5b60006002820490506001821680610f8557607f821691505b602082108103610f9857610f97610f3e565b5b50919050565b7f4e487b7100000000000000000000000000000000000000000000000000000000600052601160045260246000fd5b6000610fd882610d44565b9150610fe383610d44565b9250828203905081811115610ffb57610ffa610f9e565b5b92915050565b600061100c82610d44565b915061101783610d44565b925082820190508082111561102f5761102e610f9e565b5b92915050565b7f74696d6520776169740000000000000000000000000000000000000000000000600082015250565b600061106b600983610c10565b915061107682611035565b602082019050919050565b6000602082019050818103600083015261109a8161105e565b9050919050565b60008160011c9050919050565b6000808291508390505b60018511156110f8578086048111156110d4576110d3610f9e565b5b60018516156110e35780820291505b80810290506110f1856110a1565b94506110b8565b94509492505050565b60008261111157600190506111cd565b8161111f57600090506111cd565b8160018114611135576002811461113f5761116e565b60019150506111cd565b60ff84111561115157611150610f9e565b5b8360020a91508482111561116857611167610f9e565b5b506111cd565b5060208310610133831016604e8410600b84101617156111a35782820a90508381111561119e5761119d610f9e565b5b6111cd565b6111b084848460016110ae565b925090508184048111156111c7576111c6610f9e565b5b81810290505b9392505050565b60006111df82610d44565b91506111ea83610e6d565b92506112177fffffffffffffffffffffffffffffffffffffffffffffffffffffffffffffffff8484611101565b905092915050565b600061122a82610d44565b915061123583610d44565b925082820261124381610d44565b9150828204841483151761125a57611259610f9e565b5b509291505056fea26469706673582212200fdc8445796c37721dc466da26cf2352fec7834b6d875dfccc67b84fb1f4073464736f6c63430008110033",
  "linkReferences": {},
  "deployedLinkReferences": {}
}