{
  "_format": "hh-sol-artifact-1",
  "contractName": "FaucetERC20",
  "sourceName": "contracts/faucet.sol",
  "abi": [
    {
      "inputs": [],
      "stateMutability": "nonpayable",
      "type": "constructor"
    },
    {
      "anonymous": false,
      "inputs": [
        {
          "indexed": true,
          "internalType": "address",
          "name": "sender",
          "type": "address"
        },
        {
          "indexed": true,
          "internalType": "address",
          "name": "token",
          "type": "address"
        },
        {
          "indexed": true,
          "internalType": "address",
          "name": "to",
          "type": "address"
        },
        {
          "indexed": false,
          "internalType": "uint256",
          "name": "amount",
          "type": "uint256"
        }
      ],
      "name": "Faucet",
      "type": "event"
    },
    {
      "inputs": [],
      "name": "acceptSetter",
      "outputs": [],
      "stateMutability": "nonpayable",
      "type": "function"
    },
    {
      "inputs": [
        {
          "internalType": "address",
          "name": "token",
          "type": "address"
        },
        {
          "internalType": "address",
          "name": "to",
          "type": "address"
        }
      ],
      "name": "faucet",
      "outputs": [
        {
          "internalType": "bool",
          "name": "",
          "type": "bool"
        }
      ],
      "stateMutability": "nonpayable",
      "type": "function"
    },
    {
      "inputs": [],
      "name": "faucetAmount",
      "outputs": [
        {
          "internalType": "uint256",
          "name": "",
          "type": "uint256"
        }
      ],
      "stateMutability": "view",
      "type": "function"
    },
    {
      "inputs": [
        {
          "internalType": "address",
          "name": "",
          "type": "address"
        },
        {
          "internalType": "address",
          "name": "",
          "type": "address"
        }
      ],
      "name": "faucetLastOf",
      "outputs": [
        {
          "internalType": "uint256",
          "name": "",
          "type": "uint256"
        }
      ],
      "stateMutability": "view",
      "type": "function"
    },
    {
      "inputs": [],
      "name": "limitTime",
      "outputs": [
        {
          "internalType": "uint256",
          "name": "",
          "type": "uint256"
        }
      ],
      "stateMutability": "view",
      "type": "function"
    },
    {
      "inputs": [],
      "name": "owner",
      "outputs": [
        {
          "internalType": "address",
          "name": "",
          "type": "address"
        }
      ],
      "stateMutability": "view",
      "type": "function"
    },
    {
      "inputs": [
        {
          "internalType": "uint256",
          "name": "a",
          "type": "uint256"
        }
      ],
      "name": "setFaucetAmount",
      "outputs": [],
      "stateMutability": "nonpayable",
      "type": "function"
    },
    {
      "inputs": [
        {
          "internalType": "uint256",
          "name": "t",
          "type": "uint256"
        }
      ],
      "name": "setLimitTime",
      "outputs": [],
      "stateMutability": "nonpayable",
      "type": "function"
    },
    {
      "inputs": [
        {
          "internalType": "address",
          "name": "_owner",
          "type": "address"
        }
      ],
      "name": "transferOwner",
      "outputs": [],
      "stateMutability": "nonpayable",
      "type": "function"
    }
  ],
  "bytecode": "0x6080604052606460035561025860045534801561001b57600080fd5b50336000806101000a81548173ffffffffffffffffffffffffffffffffffffffff021916908373ffffffffffffffffffffffffffffffffffffffff160217905550610e098061006b6000396000f3fe608060405234801561001057600080fd5b50600436106100935760003560e01c80638da5cb5b116100665780638da5cb5b1461010a5780639c28143014610128578063ae94498614610146578063b3b95e3014610176578063e7e62d361461019457610093565b80634fb2e45d146100985780635f8e422f146100b45780637535679a146100be57806381d2fd9c146100ee575b600080fd5b6100b260048036038101906100ad9190610885565b6101b0565b005b6100bc610282565b005b6100d860048036038101906100d391906108b2565b6103b8565b6040516100e5919061090d565b60405180910390f35b6101086004803603810190610103919061095e565b61069d565b005b610112610735565b60405161011f919061099a565b60405180910390f35b610130610759565b60405161013d91906109c4565b60405180910390f35b610160600480360381019061015b91906108b2565b61075f565b60405161016d91906109c4565b60405180910390f35b61017e610784565b60405161018b91906109c4565b60405180910390f35b6101ae60048036038101906101a9919061095e565b61078a565b005b60008054906101000a900473ffffffffffffffffffffffffffffffffffffffff1673ffffffffffffffffffffffffffffffffffffffff163373ffffffffffffffffffffffffffffffffffffffff161461023e576040517f08c379a000000000000000000000000000000000000000000000000000000000815260040161023590610a3c565b60405180910390fd5b80600160006101000a81548173ffffffffffffffffffffffffffffffffffffffff021916908373ffffffffffffffffffffffffffffffffffffffff16021790555050565b600160009054906101000a900473ffffffffffffffffffffffffffffffffffffffff1673ffffffffffffffffffffffffffffffffffffffff163373ffffffffffffffffffffffffffffffffffffffff1614610312576040517f08c379a000000000000000000000000000000000000000000000000000000000815260040161030990610a3c565b60405180910390fd5b600160009054906101000a900473ffffffffffffffffffffffffffffffffffffffff166000806101000a81548173ffffffffffffffffffffffffffffffffffffffff021916908373ffffffffffffffffffffffffffffffffffffffff1602179055506000600160006101000a81548173ffffffffffffffffffffffffffffffffffffffff021916908373ffffffffffffffffffffffffffffffffffffffff160217905550565b600080839050610258600260008673ffffffffffffffffffffffffffffffffffffffff1673ffffffffffffffffffffffffffffffffffffffff16815260200190815260200160002060008573ffffffffffffffffffffffffffffffffffffffff1673ffffffffffffffffffffffffffffffffffffffff168152602001908152602001600020546104489190610a8b565b4211610489576040517f08c379a000000000000000000000000000000000000000000000000000000000815260040161048090610b0b565b60405180910390fd5b60008173ffffffffffffffffffffffffffffffffffffffff1663313ce5676040518163ffffffff1660e01b8152600401602060405180830381865afa1580156104d6573d6000803e3d6000fd5b505050506040513d601f19601f820116820180604052508101906104fa9190610b64565b600a6105069190610cc4565b6003546105139190610d0f565b905042600260008773ffffffffffffffffffffffffffffffffffffffff1673ffffffffffffffffffffffffffffffffffffffff16815260200190815260200160002060008673ffffffffffffffffffffffffffffffffffffffff1673ffffffffffffffffffffffffffffffffffffffff168152602001908152602001600020819055508173ffffffffffffffffffffffffffffffffffffffff1663a9059cbb85836040518363ffffffff1660e01b81526004016105d1929190610d51565b6020604051808303816000875af11580156105f0573d6000803e3d6000fd5b505050506040513d601f19601f820116820180604052508101906106149190610da6565b508373ffffffffffffffffffffffffffffffffffffffff168573ffffffffffffffffffffffffffffffffffffffff163373ffffffffffffffffffffffffffffffffffffffff167fec8fa084d4361a65b6142ffc008df656f0e76a3dfe6968b31a8844d07bdd27f88460405161068991906109c4565b60405180910390a460019250505092915050565b60008054906101000a900473ffffffffffffffffffffffffffffffffffffffff1673ffffffffffffffffffffffffffffffffffffffff163373ffffffffffffffffffffffffffffffffffffffff161461072b576040517f08c379a000000000000000000000000000000000000000000000000000000000815260040161072290610a3c565b60405180910390fd5b8060038190555050565b60008054906101000a900473ffffffffffffffffffffffffffffffffffffffff1681565b60035481565b6002602052816000526040600020602052806000526040600020600091509150505481565b60045481565b60008054906101000a900473ffffffffffffffffffffffffffffffffffffffff1673ffffffffffffffffffffffffffffffffffffffff163373ffffffffffffffffffffffffffffffffffffffff1614610818576040517f08c379a000000000000000000000000000000000000000000000000000000000815260040161080f90610a3c565b60405180910390fd5b8060048190555050565b600080fd5b600073ffffffffffffffffffffffffffffffffffffffff82169050919050565b600061085282610827565b9050919050565b61086281610847565b811461086d57600080fd5b50565b60008135905061087f81610859565b92915050565b60006020828403121561089b5761089a610822565b5b60006108a984828501610870565b91505092915050565b600080604083850312156108c9576108c8610822565b5b60006108d785828601610870565b92505060206108e885828601610870565b9150509250929050565b60008115159050919050565b610907816108f2565b82525050565b600060208201905061092260008301846108fe565b92915050565b6000819050919050565b61093b81610928565b811461094657600080fd5b50565b60008135905061095881610932565b92915050565b60006020828403121561097457610973610822565b5b600061098284828501610949565b91505092915050565b61099481610847565b82525050565b60006020820190506109af600083018461098b565b92915050565b6109be81610928565b82525050565b60006020820190506109d960008301846109b5565b92915050565b600082825260208201905092915050565b7f666f7262696464656e0000000000000000000000000000000000000000000000600082015250565b6000610a266009836109df565b9150610a31826109f0565b602082019050919050565b60006020820190508181036000830152610a5581610a19565b9050919050565b7f4e487b7100000000000000000000000000000000000000000000000000000000600052601160045260246000fd5b6000610a9682610928565b9150610aa183610928565b9250828201905080821115610ab957610ab8610a5c565b5b92915050565b7f74696d6520776169740000000000000000000000000000000000000000000000600082015250565b6000610af56009836109df565b9150610b0082610abf565b602082019050919050565b60006020820190508181036000830152610b2481610ae8565b9050919050565b600060ff82169050919050565b610b4181610b2b565b8114610b4c57600080fd5b50565b600081519050610b5e81610b38565b92915050565b600060208284031215610b7a57610b79610822565b5b6000610b8884828501610b4f565b91505092915050565b60008160011c9050919050565b6000808291508390505b6001851115610be857808604811115610bc457610bc3610a5c565b5b6001851615610bd35780820291505b8081029050610be185610b91565b9450610ba8565b94509492505050565b600082610c015760019050610cbd565b81610c0f5760009050610cbd565b8160018114610c255760028114610c2f57610c5e565b6001915050610cbd565b60ff841115610c4157610c40610a5c565b5b8360020a915084821115610c5857610c57610a5c565b5b50610cbd565b5060208310610133831016604e8410600b8410161715610c935782820a905083811115610c8e57610c8d610a5c565b5b610cbd565b610ca08484846001610b9e565b92509050818404811115610cb757610cb6610a5c565b5b81810290505b9392505050565b6000610ccf82610928565b9150610cda83610b2b565b9250610d077fffffffffffffffffffffffffffffffffffffffffffffffffffffffffffffffff8484610bf1565b905092915050565b6000610d1a82610928565b9150610d2583610928565b9250828202610d3381610928565b91508282048414831517610d4a57610d49610a5c565b5b5092915050565b6000604082019050610d66600083018561098b565b610d7360208301846109b5565b9392505050565b610d83816108f2565b8114610d8e57600080fd5b50565b600081519050610da081610d7a565b92915050565b600060208284031215610dbc57610dbb610822565b5b6000610dca84828501610d91565b9150509291505056fea264697066735822122098f6ceeebe903621e25020af83c67f967ecdb545eb810f8e3ff08d37d8c96fc664736f6c63430008110033",
  "linkReferences": {},
  "deployedLinkReferences": {}
}