{
  "_format": "hh-sol-artifact-1",
  "contractName": "MultiSign",
  "sourceName": "contracts/multiSign.sol",
  "abi": [
    {
      "inputs": [
        {
          "internalType": "address[]",
          "name": "_signers",
          "type": "address[]"
        },
        {
          "internalType": "uint8",
          "name": "_requireCount",
          "type": "uint8"
        }
      ],
      "stateMutability": "nonpayable",
      "type": "constructor"
    },
    {
      "anonymous": false,
      "inputs": [
        {
          "indexed": false,
          "internalType": "uint8",
          "name": "changeRequireCount",
          "type": "uint8"
        }
      ],
      "name": "ChangeRequireCount",
      "type": "event"
    },
    {
      "anonymous": false,
      "inputs": [
        {
          "indexed": true,
          "internalType": "address",
          "name": "signer",
          "type": "address"
        }
      ],
      "name": "SignerAddition",
      "type": "event"
    },
    {
      "anonymous": false,
      "inputs": [
        {
          "indexed": true,
          "internalType": "address",
          "name": "signer",
          "type": "address"
        }
      ],
      "name": "SignerRemoval",
      "type": "event"
    },
    {
      "inputs": [
        {
          "internalType": "address",
          "name": "signer",
          "type": "address"
        }
      ],
      "name": "addSigner",
      "outputs": [],
      "stateMutability": "nonpayable",
      "type": "function"
    },
    {
      "inputs": [],
      "name": "addingCount",
      "outputs": [
        {
          "internalType": "uint8",
          "name": "",
          "type": "uint8"
        }
      ],
      "stateMutability": "view",
      "type": "function"
    },
    {
      "inputs": [],
      "name": "addingSigner",
      "outputs": [
        {
          "internalType": "address",
          "name": "",
          "type": "address"
        }
      ],
      "stateMutability": "view",
      "type": "function"
    },
    {
      "inputs": [
        {
          "internalType": "uint8",
          "name": "newCount",
          "type": "uint8"
        }
      ],
      "name": "changeRequireCount",
      "outputs": [],
      "stateMutability": "nonpayable",
      "type": "function"
    },
    {
      "inputs": [],
      "name": "changingCount",
      "outputs": [
        {
          "internalType": "uint8",
          "name": "",
          "type": "uint8"
        }
      ],
      "stateMutability": "view",
      "type": "function"
    },
    {
      "inputs": [
        {
          "internalType": "address",
          "name": "",
          "type": "address"
        },
        {
          "internalType": "address",
          "name": "",
          "type": "address"
        }
      ],
      "name": "isAdded",
      "outputs": [
        {
          "internalType": "bool",
          "name": "",
          "type": "bool"
        }
      ],
      "stateMutability": "view",
      "type": "function"
    },
    {
      "inputs": [
        {
          "internalType": "address",
          "name": "",
          "type": "address"
        }
      ],
      "name": "isChangeCount",
      "outputs": [
        {
          "internalType": "bool",
          "name": "",
          "type": "bool"
        }
      ],
      "stateMutability": "view",
      "type": "function"
    },
    {
      "inputs": [
        {
          "internalType": "address",
          "name": "",
          "type": "address"
        },
        {
          "internalType": "uint8",
          "name": "",
          "type": "uint8"
        }
      ],
      "name": "isRemoved",
      "outputs": [
        {
          "internalType": "bool",
          "name": "",
          "type": "bool"
        }
      ],
      "stateMutability": "view",
      "type": "function"
    },
    {
      "inputs": [],
      "name": "newRequireCount",
      "outputs": [
        {
          "internalType": "uint8",
          "name": "",
          "type": "uint8"
        }
      ],
      "stateMutability": "view",
      "type": "function"
    },
    {
      "inputs": [
        {
          "internalType": "uint8",
          "name": "index",
          "type": "uint8"
        }
      ],
      "name": "removeSigner",
      "outputs": [],
      "stateMutability": "nonpayable",
      "type": "function"
    },
    {
      "inputs": [],
      "name": "removingCount",
      "outputs": [
        {
          "internalType": "uint8",
          "name": "",
          "type": "uint8"
        }
      ],
      "stateMutability": "view",
      "type": "function"
    },
    {
      "inputs": [],
      "name": "removingIndex",
      "outputs": [
        {
          "internalType": "uint8",
          "name": "",
          "type": "uint8"
        }
      ],
      "stateMutability": "view",
      "type": "function"
    },
    {
      "inputs": [],
      "name": "requireCount",
      "outputs": [
        {
          "internalType": "uint8",
          "name": "",
          "type": "uint8"
        }
      ],
      "stateMutability": "view",
      "type": "function"
    },
    {
      "inputs": [
        {
          "internalType": "uint256",
          "name": "",
          "type": "uint256"
        }
      ],
      "name": "signers",
      "outputs": [
        {
          "internalType": "address",
          "name": "",
          "type": "address"
        }
      ],
      "stateMutability": "view",
      "type": "function"
    }
  ],
  "bytecode": "0x60806040523480156200001157600080fd5b50604051620020ba380380620020ba833981810160405281019062000037919062000509565b60005b82518160ff161015620001f257600060016000858460ff16815181106200006657620000656200056f565b5b602002602001015173ffffffffffffffffffffffffffffffffffffffff1673ffffffffffffffffffffffffffffffffffffffff16815260200190815260200160002060009054906101000a900460ff1660ff16148015620001145750600073ffffffffffffffffffffffffffffffffffffffff16838260ff1681518110620000f357620000f26200056f565b5b602002602001015173ffffffffffffffffffffffffffffffffffffffff1614155b62000156576040517f08c379a00000000000000000000000000000000000000000000000000000000081526004016200014d90620005ff565b60405180910390fd5b60018162000165919062000650565b60016000858460ff16815181106200018257620001816200056f565b5b602002602001015173ffffffffffffffffffffffffffffffffffffffff1673ffffffffffffffffffffffffffffffffffffffff16815260200190815260200160002060006101000a81548160ff021916908360ff1602179055508080620001e9906200068c565b9150506200003a565b5081600090805190602001906200020b9291906200022f565b5080600260006101000a81548160ff021916908360ff1602179055505050620006ba565b828054828255906000526020600020908101928215620002ab579160200282015b82811115620002aa5782518260006101000a81548173ffffffffffffffffffffffffffffffffffffffff021916908373ffffffffffffffffffffffffffffffffffffffff1602179055509160200191906001019062000250565b5b509050620002ba9190620002be565b5090565b5b80821115620002d9576000816000905550600101620002bf565b5090565b6000604051905090565b600080fd5b600080fd5b600080fd5b6000601f19601f8301169050919050565b7f4e487b7100000000000000000000000000000000000000000000000000000000600052604160045260246000fd5b6200034182620002f6565b810181811067ffffffffffffffff8211171562000363576200036262000307565b5b80604052505050565b600062000378620002dd565b905062000386828262000336565b919050565b600067ffffffffffffffff821115620003a957620003a862000307565b5b602082029050602081019050919050565b600080fd5b600073ffffffffffffffffffffffffffffffffffffffff82169050919050565b6000620003ec82620003bf565b9050919050565b620003fe81620003df565b81146200040a57600080fd5b50565b6000815190506200041e81620003f3565b92915050565b60006200043b62000435846200038b565b6200036c565b90508083825260208201905060208402830185811115620004615762000460620003ba565b5b835b818110156200048e57806200047988826200040d565b84526020840193505060208101905062000463565b5050509392505050565b600082601f830112620004b057620004af620002f1565b5b8151620004c284826020860162000424565b91505092915050565b600060ff82169050919050565b620004e381620004cb565b8114620004ef57600080fd5b50565b6000815190506200050381620004d8565b92915050565b60008060408385031215620005235762000522620002e7565b5b600083015167ffffffffffffffff811115620005445762000543620002ec565b5b620005528582860162000498565b92505060206200056585828601620004f2565b9150509250929050565b7f4e487b7100000000000000000000000000000000000000000000000000000000600052603260045260246000fd5b600082825260208201905092915050565b7f696e76616c6964206f72206475706c696361746564207369676e657200000000600082015250565b6000620005e7601c836200059e565b9150620005f482620005af565b602082019050919050565b600060208201905081810360008301526200061a81620005d8565b9050919050565b7f4e487b7100000000000000000000000000000000000000000000000000000000600052601160045260246000fd5b60006200065d82620004cb565b91506200066a83620004cb565b9250828201905060ff81111562000686576200068562000621565b5b92915050565b60006200069982620004cb565b915060ff8203620006af57620006ae62000621565b5b600182019050919050565b6119f080620006ca6000396000f3fe608060405234801561001057600080fd5b50600436106100ea5760003560e01c80636561d53c1161008c5780639bc5362e116100665780639bc5362e1461024f578063a1ed637a1461026b578063eb12d61e14610289578063f770a5db146102a5576100ea565b80636561d53c146101e357806368d024171461021357806383051fde14610231576100ea565b80633d5655f8116100c85780633d5655f81461016b578063458a3add146101895780635003b333146101a757806354ca4416146101c5576100ea565b806307a4145b146100ef5780632079fb9a1461010b57806326fbcf931461013b575b600080fd5b61010960048036038101906101049190611371565b6102d5565b005b610125600480360381019061012091906113d4565b61064d565b6040516101329190611442565b60405180910390f35b61015560048036038101906101509190611489565b61068c565b60405161016291906114d1565b60405180910390f35b6101736106ac565b6040516101809190611442565b60405180910390f35b6101916106d2565b60405161019e91906114fb565b60405180910390f35b6101af6106e5565b6040516101bc91906114fb565b60405180910390f35b6101cd6106f8565b6040516101da91906114fb565b60405180910390f35b6101fd60048036038101906101f89190611516565b61070b565b60405161020a91906114d1565b60405180910390f35b61021b61073a565b60405161022891906114fb565b60405180910390f35b61023961074d565b60405161024691906114fb565b60405180910390f35b61026960048036038101906102649190611371565b610760565b005b610273610d01565b60405161028091906114fb565b60405180910390f35b6102a3600480360381019061029e9190611489565b610d14565b005b6102bf60048036038101906102ba9190611556565b611304565b6040516102cc91906114d1565b60405180910390f35b6000600160003373ffffffffffffffffffffffffffffffffffffffff1673ffffffffffffffffffffffffffffffffffffffff16815260200190815260200160002060009054906101000a900460ff1660ff1611610367576040517f08c379a000000000000000000000000000000000000000000000000000000000815260040161035e906115f3565b60405180910390fd5b6000600660009054906101000a900460ff1660ff160361045a576000805490508160ff1611156103cc576040517f08c379a00000000000000000000000000000000000000000000000000000000081526004016103c39061165f565b60405180910390fd5b8060ff16600660009054906101000a9050505060005b6000805490508160ff16101561045457600760003373ffffffffffffffffffffffffffffffffffffffff1673ffffffffffffffffffffffffffffffffffffffff16815260200190815260200160002060006101000a81549060ff0219169055808061044c906116ae565b9150506103e2565b506104b2565b600660009054906101000a900460ff1660ff168160ff16146104b1576040517f08c379a00000000000000000000000000000000000000000000000000000000081526004016104a890611723565b60405180910390fd5b5b600760003373ffffffffffffffffffffffffffffffffffffffff1673ffffffffffffffffffffffffffffffffffffffff16815260200190815260200160002060009054906101000a900460ff16610594576001600760003373ffffffffffffffffffffffffffffffffffffffff1673ffffffffffffffffffffffffffffffffffffffff16815260200190815260200160002060006101000a81548160ff0219169083151502179055506006600181819054906101000a900460ff168092919061057a906116ae565b91906101000a81548160ff021916908360ff160217905550505b600260009054906101000a900460ff1660ff16600660019054906101000a900460ff1660ff161061064a5780600260006101000a81548160ff021916908360ff1602179055506000600660006101000a81548160ff021916908360ff1602179055506000600660016101000a81548160ff021916908360ff1602179055507f971ed33ab126ac4c0a07a18b84ed2990cde2ae87b25cd5009c84e7e5c9c8cffd8160405161064191906114fb565b60405180910390a15b50565b6000818154811061065d57600080fd5b906000526020600020016000915054906101000a900473ffffffffffffffffffffffffffffffffffffffff1681565b60076020528060005260406000206000915054906101000a900460ff1681565b600260019054906101000a900473ffffffffffffffffffffffffffffffffffffffff1681565b600660009054906101000a900460ff1681565b600460009054906101000a900460ff1681565b600660019054906101000a900460ff1681565b60056020528160005260406000206020528060005260406000206000915091509054906101000a900460ff1681565b600460019054906101000a900460ff1681565b600260009054906101000a900460ff1681565b6000600160003373ffffffffffffffffffffffffffffffffffffffff1673ffffffffffffffffffffffffffffffffffffffff16815260200190815260200160002060009054906101000a900460ff1660ff16116107f2576040517f08c379a00000000000000000000000000000000000000000000000000000000081526004016107e9906115f3565b60405180910390fd5b6000600460009054906101000a900460ff1660ff16036108fb576000805490508160ff1610610856576040517f08c379a000000000000000000000000000000000000000000000000000000000815260040161084d9061178f565b60405180910390fd5b8060ff16600460009054906101000a9050505060005b6000805490508160ff1610156108f557600560003373ffffffffffffffffffffffffffffffffffffffff1673ffffffffffffffffffffffffffffffffffffffff16815260200190815260200160002060008260ff1660ff16815260200190815260200160002060006101000a81549060ff021916905580806108ed906116ae565b91505061086c565b50610953565b8060ff16600460009054906101000a900460ff1660ff1614610952576040517f08c379a0000000000000000000000000000000000000000000000000000000008152600401610949906117fb565b60405180910390fd5b5b600560003373ffffffffffffffffffffffffffffffffffffffff1673ffffffffffffffffffffffffffffffffffffffff16815260200190815260200160002060008260ff1660ff16815260200190815260200160002060009054906101000a900460ff16610a63576001600560003373ffffffffffffffffffffffffffffffffffffffff1673ffffffffffffffffffffffffffffffffffffffff16815260200190815260200160002060008360ff1660ff16815260200190815260200160002060006101000a81548160ff0219169083151502179055506004600181819054906101000a900460ff1680929190610a49906116ae565b91906101000a81548160ff021916908360ff160217905550505b600260009054906101000a900460ff1660ff16600460019054906101000a900460ff1660ff1610610cfe576000808260ff1681548110610aa657610aa561181b565b5b9060005260206000200160009054906101000a900473ffffffffffffffffffffffffffffffffffffffff1690506000806001600080549050610ae8919061184a565b81548110610af957610af861181b565b5b9060005260206000200160009054906101000a900473ffffffffffffffffffffffffffffffffffffffff1690508060008460ff1681548110610b3e57610b3d61181b565b5b9060005260206000200160006101000a81548173ffffffffffffffffffffffffffffffffffffffff021916908373ffffffffffffffffffffffffffffffffffffffff160217905550600183610b93919061187e565b600160008373ffffffffffffffffffffffffffffffffffffffff1673ffffffffffffffffffffffffffffffffffffffff16815260200190815260200160002060006101000a81548160ff021916908360ff160217905550600160008373ffffffffffffffffffffffffffffffffffffffff1673ffffffffffffffffffffffffffffffffffffffff16815260200190815260200160002060006101000a81549060ff02191690556000805480610c4b57610c4a6118b3565b5b6001900381819060005260206000200160006101000a81549073ffffffffffffffffffffffffffffffffffffffff021916905590556000600460006101000a81548160ff021916908360ff1602179055506000600460016101000a81548160ff021916908360ff1602179055508173ffffffffffffffffffffffffffffffffffffffff167fa2a6e2b8f0cf0f627456034557b0149227a355af53f5bc8ce7e496bfbe73c0a960405160405180910390a250505b50565b600260159054906101000a900460ff1681565b6000600160003373ffffffffffffffffffffffffffffffffffffffff1673ffffffffffffffffffffffffffffffffffffffff16815260200190815260200160002060009054906101000a900460ff1660ff1611610da6576040517f08c379a0000000000000000000000000000000000000000000000000000000008152600401610d9d906115f3565b60405180910390fd5b600073ffffffffffffffffffffffffffffffffffffffff16600260019054906101000a900473ffffffffffffffffffffffffffffffffffffffff1673ffffffffffffffffffffffffffffffffffffffff1603610f87576000600160008373ffffffffffffffffffffffffffffffffffffffff1673ffffffffffffffffffffffffffffffffffffffff16815260200190815260200160002060009054906101000a900460ff1660ff1614610e8e576040517f08c379a0000000000000000000000000000000000000000000000000000000008152600401610e859061192e565b60405180910390fd5b80600260016101000a81548173ffffffffffffffffffffffffffffffffffffffff021916908373ffffffffffffffffffffffffffffffffffffffff16021790555060005b6000805490508160ff161015610f8157600360003373ffffffffffffffffffffffffffffffffffffffff1673ffffffffffffffffffffffffffffffffffffffff16815260200190815260200160002060008373ffffffffffffffffffffffffffffffffffffffff1673ffffffffffffffffffffffffffffffffffffffff16815260200190815260200160002060006101000a81549060ff02191690558080610f79906116ae565b915050610ed2565b50611018565b8073ffffffffffffffffffffffffffffffffffffffff16600260019054906101000a900473ffffffffffffffffffffffffffffffffffffffff1673ffffffffffffffffffffffffffffffffffffffff1614611017576040517f08c379a000000000000000000000000000000000000000000000000000000000815260040161100e9061199a565b60405180910390fd5b5b600360003373ffffffffffffffffffffffffffffffffffffffff1673ffffffffffffffffffffffffffffffffffffffff16815260200190815260200160002060008273ffffffffffffffffffffffffffffffffffffffff1673ffffffffffffffffffffffffffffffffffffffff16815260200190815260200160002060009054906101000a900460ff16611174576001600360003373ffffffffffffffffffffffffffffffffffffffff1673ffffffffffffffffffffffffffffffffffffffff16815260200190815260200160002060008373ffffffffffffffffffffffffffffffffffffffff1673ffffffffffffffffffffffffffffffffffffffff16815260200190815260200160002060006101000a81548160ff0219169083151502179055506002601581819054906101000a900460ff168092919061115a906116ae565b91906101000a81548160ff021916908360ff160217905550505b600260009054906101000a900460ff1660ff16600260159054906101000a900460ff1660ff1610611301576000819080600181540180825580915050600190039060005260206000200160009091909190916101000a81548173ffffffffffffffffffffffffffffffffffffffff021916908373ffffffffffffffffffffffffffffffffffffffff160217905550600080549050600160008373ffffffffffffffffffffffffffffffffffffffff1673ffffffffffffffffffffffffffffffffffffffff16815260200190815260200160002060006101000a81548160ff021916908360ff1602179055506000600260016101000a81548173ffffffffffffffffffffffffffffffffffffffff021916908373ffffffffffffffffffffffffffffffffffffffff1602179055506000600260156101000a81548160ff021916908360ff1602179055508073ffffffffffffffffffffffffffffffffffffffff167f8191ca9d665b824fc53160f3727e7ec3a5330e4a67e1db6c4a86678956dfef1960405160405180910390a25b50565b60036020528160005260406000206020528060005260406000206000915091509054906101000a900460ff1681565b600080fd5b600060ff82169050919050565b61134e81611338565b811461135957600080fd5b50565b60008135905061136b81611345565b92915050565b60006020828403121561138757611386611333565b5b60006113958482850161135c565b91505092915050565b6000819050919050565b6113b18161139e565b81146113bc57600080fd5b50565b6000813590506113ce816113a8565b92915050565b6000602082840312156113ea576113e9611333565b5b60006113f8848285016113bf565b91505092915050565b600073ffffffffffffffffffffffffffffffffffffffff82169050919050565b600061142c82611401565b9050919050565b61143c81611421565b82525050565b60006020820190506114576000830184611433565b92915050565b61146681611421565b811461147157600080fd5b50565b6000813590506114838161145d565b92915050565b60006020828403121561149f5761149e611333565b5b60006114ad84828501611474565b91505092915050565b60008115159050919050565b6114cb816114b6565b82525050565b60006020820190506114e660008301846114c2565b92915050565b6114f581611338565b82525050565b600060208201905061151060008301846114ec565b92915050565b6000806040838503121561152d5761152c611333565b5b600061153b85828601611474565b925050602061154c8582860161135c565b9150509250929050565b6000806040838503121561156d5761156c611333565b5b600061157b85828601611474565b925050602061158c85828601611474565b9150509250929050565b600082825260208201905092915050565b7f6e6f74207369676e657200000000000000000000000000000000000000000000600082015250565b60006115dd600a83611596565b91506115e8826115a7565b602082019050919050565b6000602082019050818103600083015261160c816115d0565b9050919050565b7f77726f6e6720636f756e74000000000000000000000000000000000000000000600082015250565b6000611649600b83611596565b915061165482611613565b602082019050919050565b600060208201905081810360008301526116788161163c565b9050919050565b7f4e487b7100000000000000000000000000000000000000000000000000000000600052601160045260246000fd5b60006116b982611338565b915060ff82036116cc576116cb61167f565b5b600182019050919050565b7f6d69736d61746368656420636f756e7400000000000000000000000000000000600082015250565b600061170d601083611596565b9150611718826116d7565b602082019050919050565b6000602082019050818103600083015261173c81611700565b9050919050565b7f77726f6e6720696e646578000000000000000000000000000000000000000000600082015250565b6000611779600b83611596565b915061178482611743565b602082019050919050565b600060208201905081810360008301526117a88161176c565b9050919050565b7f6d69736d61746368656420696e64657800000000000000000000000000000000600082015250565b60006117e5601083611596565b91506117f0826117af565b602082019050919050565b60006020820190508181036000830152611814816117d8565b9050919050565b7f4e487b7100000000000000000000000000000000000000000000000000000000600052603260045260246000fd5b60006118558261139e565b91506118608361139e565b92508282039050818111156118785761187761167f565b5b92915050565b600061188982611338565b915061189483611338565b9250828201905060ff8111156118ad576118ac61167f565b5b92915050565b7f4e487b7100000000000000000000000000000000000000000000000000000000600052603160045260246000fd5b7f616c726561647920657869737400000000000000000000000000000000000000600082015250565b6000611918600d83611596565b9150611923826118e2565b602082019050919050565b600060208201905081810360008301526119478161190b565b9050919050565b7f77726f6e67207369676e65720000000000000000000000000000000000000000600082015250565b6000611984600c83611596565b915061198f8261194e565b602082019050919050565b600060208201905081810360008301526119b381611977565b905091905056fea2646970667358221220cd4a532996d599598092730caed180f418ab129ad53363f26bfbb51ce58cbe7a64736f6c63430008110033",
  "linkReferences": {},
  "deployedLinkReferences": {}
}