{
  "_format": "hh-sol-artifact-1",
  "contractName": "FaucetTestToken",
  "sourceName": "contracts/tt_faucet.sol",
  "abi": [
    {
      "inputs": [
        {
          "internalType": "string",
          "name": "_name",
          "type": "string"
        },
        {
          "internalType": "string",
          "name": "_symbol",
          "type": "string"
        },
        {
          "internalType": "uint8",
          "name": "d",
          "type": "uint8"
        }
      ],
      "stateMutability": "nonpayable",
      "type": "constructor"
    },
    {
      "anonymous": false,
      "inputs": [
        {
          "indexed": true,
          "internalType": "address",
          "name": "owner",
          "type": "address"
        },
        {
          "indexed": true,
          "internalType": "address",
          "name": "spender",
          "type": "address"
        },
        {
          "indexed": false,
          "internalType": "uint256",
          "name": "value",
          "type": "uint256"
        }
      ],
      "name": "Approval",
      "type": "event"
    },
    {
      "anonymous": false,
      "inputs": [
        {
          "indexed": true,
          "internalType": "address",
          "name": "sender",
          "type": "address"
        },
        {
          "indexed": false,
          "internalType": "uint256",
          "name": "amount",
          "type": "uint256"
        }
      ],
      "name": "Faucet",
      "type": "event"
    },
    {
      "anonymous": false,
      "inputs": [
        {
          "indexed": true,
          "internalType": "address",
          "name": "sender",
          "type": "address"
        },
        {
          "indexed": false,
          "internalType": "uint256",
          "name": "amount",
          "type": "uint256"
        }
      ],
      "name": "Mint",
      "type": "event"
    },
    {
      "anonymous": false,
      "inputs": [
        {
          "indexed": true,
          "internalType": "address",
          "name": "from",
          "type": "address"
        },
        {
          "indexed": true,
          "internalType": "address",
          "name": "to",
          "type": "address"
        },
        {
          "indexed": false,
          "internalType": "uint256",
          "name": "value",
          "type": "uint256"
        }
      ],
      "name": "Transfer",
      "type": "event"
    },
    {
      "inputs": [
        {
          "internalType": "address",
          "name": "",
          "type": "address"
        },
        {
          "internalType": "address",
          "name": "",
          "type": "address"
        }
      ],
      "name": "allowance",
      "outputs": [
        {
          "internalType": "uint256",
          "name": "",
          "type": "uint256"
        }
      ],
      "stateMutability": "view",
      "type": "function"
    },
    {
      "inputs": [
        {
          "internalType": "address",
          "name": "spender",
          "type": "address"
        },
        {
          "internalType": "uint256",
          "name": "value",
          "type": "uint256"
        }
      ],
      "name": "approve",
      "outputs": [
        {
          "internalType": "bool",
          "name": "",
          "type": "bool"
        }
      ],
      "stateMutability": "nonpayable",
      "type": "function"
    },
    {
      "inputs": [
        {
          "internalType": "address",
          "name": "",
          "type": "address"
        }
      ],
      "name": "balanceOf",
      "outputs": [
        {
          "internalType": "uint256",
          "name": "",
          "type": "uint256"
        }
      ],
      "stateMutability": "view",
      "type": "function"
    },
    {
      "inputs": [],
      "name": "decimals",
      "outputs": [
        {
          "internalType": "uint8",
          "name": "",
          "type": "uint8"
        }
      ],
      "stateMutability": "view",
      "type": "function"
    },
    {
      "inputs": [],
      "name": "faucet",
      "outputs": [
        {
          "internalType": "bool",
          "name": "",
          "type": "bool"
        }
      ],
      "stateMutability": "nonpayable",
      "type": "function"
    },
    {
      "inputs": [],
      "name": "faucetAmount",
      "outputs": [
        {
          "internalType": "uint256",
          "name": "",
          "type": "uint256"
        }
      ],
      "stateMutability": "view",
      "type": "function"
    },
    {
      "inputs": [],
      "name": "getReceivers",
      "outputs": [
        {
          "internalType": "address[]",
          "name": "",
          "type": "address[]"
        },
        {
          "internalType": "uint256[]",
          "name": "",
          "type": "uint256[]"
        }
      ],
      "stateMutability": "view",
      "type": "function"
    },
    {
      "inputs": [
        {
          "internalType": "address",
          "name": "",
          "type": "address"
        }
      ],
      "name": "isFauceted",
      "outputs": [
        {
          "internalType": "bool",
          "name": "",
          "type": "bool"
        }
      ],
      "stateMutability": "view",
      "type": "function"
    },
    {
      "inputs": [
        {
          "internalType": "uint256",
          "name": "amount",
          "type": "uint256"
        }
      ],
      "name": "mint",
      "outputs": [],
      "stateMutability": "nonpayable",
      "type": "function"
    },
    {
      "inputs": [],
      "name": "minter",
      "outputs": [
        {
          "internalType": "address",
          "name": "",
          "type": "address"
        }
      ],
      "stateMutability": "view",
      "type": "function"
    },
    {
      "inputs": [],
      "name": "name",
      "outputs": [
        {
          "internalType": "string",
          "name": "",
          "type": "string"
        }
      ],
      "stateMutability": "view",
      "type": "function"
    },
    {
      "inputs": [
        {
          "internalType": "uint256",
          "name": "amount",
          "type": "uint256"
        }
      ],
      "name": "setFaucetAmount",
      "outputs": [
        {
          "internalType": "bool",
          "name": "",
          "type": "bool"
        }
      ],
      "stateMutability": "nonpayable",
      "type": "function"
    },
    {
      "inputs": [],
      "name": "symbol",
      "outputs": [
        {
          "internalType": "string",
          "name": "",
          "type": "string"
        }
      ],
      "stateMutability": "view",
      "type": "function"
    },
    {
      "inputs": [],
      "name": "totalSupply",
      "outputs": [
        {
          "internalType": "uint256",
          "name": "",
          "type": "uint256"
        }
      ],
      "stateMutability": "view",
      "type": "function"
    },
    {
      "inputs": [
        {
          "internalType": "address",
          "name": "to",
          "type": "address"
        },
        {
          "internalType": "uint256",
          "name": "value",
          "type": "uint256"
        }
      ],
      "name": "transfer",
      "outputs": [
        {
          "internalType": "bool",
          "name": "",
          "type": "bool"
        }
      ],
      "stateMutability": "nonpayable",
      "type": "function"
    },
    {
      "inputs": [
        {
          "internalType": "address",
          "name": "from",
          "type": "address"
        },
        {
          "internalType": "address",
          "name": "to",
          "type": "address"
        },
        {
          "internalType": "uint256",
          "name": "value",
          "type": "uint256"
        }
      ],
      "name": "transferFrom",
      "outputs": [
        {
          "internalType": "bool",
          "name": "",
          "type": "bool"
        }
      ],
      "stateMutability": "nonpayable",
      "type": "function"
    }
  ],
  "bytecode": "0x60806040526040518060400160405280600881526020017f5465737420555344000000000000000000000000000000000000000000000000815250600090816200004a919062000457565b506040518060400160405280600481526020017f55534454000000000000000000000000000000000000000000000000000000008152506001908162000091919062000457565b506008600260006101000a81548160ff021916908360ff1602179055506103e8600955348015620000c157600080fd5b50604051620020c1380380620020c18339818101604052810190620000e79190620006e0565b80600a620000f69190620008fd565b6402540be4006200010891906200094e565b600381905550600354600560003373ffffffffffffffffffffffffffffffffffffffff1673ffffffffffffffffffffffffffffffffffffffff1681526020019081526020016000208190555033600460006101000a81548173ffffffffffffffffffffffffffffffffffffffff021916908373ffffffffffffffffffffffffffffffffffffffff1602179055508260009081620001a6919062000457565b508160019081620001b8919062000457565b5080600260006101000a81548160ff021916908360ff16021790555050505062000999565b600081519050919050565b7f4e487b7100000000000000000000000000000000000000000000000000000000600052604160045260246000fd5b7f4e487b7100000000000000000000000000000000000000000000000000000000600052602260045260246000fd5b600060028204905060018216806200025f57607f821691505b60208210810362000275576200027462000217565b5b50919050565b60008190508160005260206000209050919050565b60006020601f8301049050919050565b600082821b905092915050565b600060088302620002df7fffffffffffffffffffffffffffffffffffffffffffffffffffffffffffffffff82620002a0565b620002eb8683620002a0565b95508019841693508086168417925050509392505050565b6000819050919050565b6000819050919050565b600062000338620003326200032c8462000303565b6200030d565b62000303565b9050919050565b6000819050919050565b620003548362000317565b6200036c62000363826200033f565b848454620002ad565b825550505050565b600090565b6200038362000374565b6200039081848462000349565b505050565b5b81811015620003b857620003ac60008262000379565b60018101905062000396565b5050565b601f8211156200040757620003d1816200027b565b620003dc8462000290565b81016020851015620003ec578190505b62000404620003fb8562000290565b83018262000395565b50505b505050565b600082821c905092915050565b60006200042c600019846008026200040c565b1980831691505092915050565b600062000447838362000419565b9150826002028217905092915050565b6200046282620001dd565b67ffffffffffffffff8111156200047e576200047d620001e8565b5b6200048a825462000246565b62000497828285620003bc565b600060209050601f831160018114620004cf5760008415620004ba578287015190505b620004c6858262000439565b86555062000536565b601f198416620004df866200027b565b60005b828110156200050957848901518255600182019150602085019450602081019050620004e2565b8683101562000529578489015162000525601f89168262000419565b8355505b6001600288020188555050505b505050505050565b6000604051905090565b600080fd5b600080fd5b600080fd5b600080fd5b6000601f19601f8301169050919050565b62000578826200055c565b810181811067ffffffffffffffff821117156200059a5762000599620001e8565b5b80604052505050565b6000620005af6200053e565b9050620005bd82826200056d565b919050565b600067ffffffffffffffff821115620005e057620005df620001e8565b5b620005eb826200055c565b9050602081019050919050565b60005b8381101562000618578082015181840152602081019050620005fb565b60008484015250505050565b60006200063b6200063584620005c2565b620005a3565b9050828152602081018484840111156200065a576200065962000557565b5b62000667848285620005f8565b509392505050565b600082601f83011262000687576200068662000552565b5b81516200069984826020860162000624565b91505092915050565b600060ff82169050919050565b620006ba81620006a2565b8114620006c657600080fd5b50565b600081519050620006da81620006af565b92915050565b600080600060608486031215620006fc57620006fb62000548565b5b600084015167ffffffffffffffff8111156200071d576200071c6200054d565b5b6200072b868287016200066f565b935050602084015167ffffffffffffffff8111156200074f576200074e6200054d565b5b6200075d868287016200066f565b92505060406200077086828701620006c9565b9150509250925092565b7f4e487b7100000000000000000000000000000000000000000000000000000000600052601160045260246000fd5b60008160011c9050919050565b6000808291508390505b60018511156200080857808604811115620007e057620007df6200077a565b5b6001851615620007f05780820291505b80810290506200080085620007a9565b9450620007c0565b94509492505050565b600082620008235760019050620008f6565b81620008335760009050620008f6565b81600181146200084c576002811462000857576200088d565b6001915050620008f6565b60ff8411156200086c576200086b6200077a565b5b8360020a9150848211156200088657620008856200077a565b5b50620008f6565b5060208310610133831016604e8410600b8410161715620008c75782820a905083811115620008c157620008c06200077a565b5b620008f6565b620008d68484846001620007b6565b92509050818404811115620008f057620008ef6200077a565b5b81810290505b9392505050565b60006200090a8262000303565b91506200091783620006a2565b9250620009467fffffffffffffffffffffffffffffffffffffffffffffffffffffffffffffffff848462000811565b905092915050565b60006200095b8262000303565b9150620009688362000303565b9250828202620009788162000303565b915082820484148315176200099257620009916200077a565b5b5092915050565b61171880620009a96000396000f3fe608060405234801561001057600080fd5b50600436106101005760003560e01c806381d2fd9c11610097578063a9059cbb11610066578063a9059cbb146102c5578063dd62ed3e146102f5578063de5f72fd14610325578063e061646b1461034357610100565b806381d2fd9c1461023d57806395d89b411461026d5780639c2814301461028b578063a0712d68146102a957610100565b806323b872dd116100d357806323b872dd1461018f5780632d2c3edf146101bf578063313ce567146101ef57806370a082311461020d57610100565b806306fdde03146101055780630754617214610123578063095ea7b31461014157806318160ddd14610171575b600080fd5b61010d610362565b60405161011a9190610ecb565b60405180910390f35b61012b6103f0565b6040516101389190610f2e565b60405180910390f35b61015b60048036038101906101569190610fb0565b610416565b604051610168919061100b565b60405180910390f35b61017961042d565b6040516101869190611035565b60405180910390f35b6101a960048036038101906101a49190611050565b610433565b6040516101b6919061100b565b60405180910390f35b6101d960048036038101906101d491906110a3565b610582565b6040516101e6919061100b565b60405180910390f35b6101f76105a2565b60405161020491906110ec565b60405180910390f35b610227600480360381019061022291906110a3565b6105b5565b6040516102349190611035565b60405180910390f35b61025760048036038101906102529190611107565b6105cd565b604051610264919061100b565b60405180910390f35b610275610639565b6040516102829190610ecb565b60405180910390f35b6102936106c7565b6040516102a09190611035565b60405180910390f35b6102c360048036038101906102be9190611107565b6106cd565b005b6102df60048036038101906102da9190610fb0565b610809565b6040516102ec919061100b565b60405180910390f35b61030f600480360381019061030a9190611134565b610820565b60405161031c9190611035565b60405180910390f35b61032d610845565b60405161033a919061100b565b60405180910390f35b61034b610a81565b6040516103599291906112f0565b60405180910390f35b6000805461036f90611356565b80601f016020809104026020016040519081016040528092919081815260200182805461039b90611356565b80156103e85780601f106103bd576101008083540402835291602001916103e8565b820191906000526020600020905b8154815290600101906020018083116103cb57829003601f168201915b505050505081565b600460009054906101000a900473ffffffffffffffffffffffffffffffffffffffff1681565b6000610423338484610c3a565b6001905092915050565b60035481565b60007fffffffffffffffffffffffffffffffffffffffffffffffffffffffffffffffff600660008673ffffffffffffffffffffffffffffffffffffffff1673ffffffffffffffffffffffffffffffffffffffff16815260200190815260200160002060003373ffffffffffffffffffffffffffffffffffffffff1673ffffffffffffffffffffffffffffffffffffffff168152602001908152602001600020541461056c5781600660008673ffffffffffffffffffffffffffffffffffffffff1673ffffffffffffffffffffffffffffffffffffffff16815260200190815260200160002060003373ffffffffffffffffffffffffffffffffffffffff1673ffffffffffffffffffffffffffffffffffffffff168152602001908152602001600020600082825461056491906113b6565b925050819055505b610577848484610d25565b600190509392505050565b60086020528060005260406000206000915054906101000a900460ff1681565b600260009054906101000a900460ff1681565b60056020528060005260406000206000915090505481565b60003373ffffffffffffffffffffffffffffffffffffffff16600460009054906101000a900473ffffffffffffffffffffffffffffffffffffffff1673ffffffffffffffffffffffffffffffffffffffff161461062957600080fd5b8160098190555060019050919050565b6001805461064690611356565b80601f016020809104026020016040519081016040528092919081815260200182805461067290611356565b80156106bf5780601f10610694576101008083540402835291602001916106bf565b820191906000526020600020905b8154815290600101906020018083116106a257829003601f168201915b505050505081565b60095481565b3373ffffffffffffffffffffffffffffffffffffffff16600460009054906101000a900473ffffffffffffffffffffffffffffffffffffffff1673ffffffffffffffffffffffffffffffffffffffff161461072757600080fd5b8060056000600460009054906101000a900473ffffffffffffffffffffffffffffffffffffffff1673ffffffffffffffffffffffffffffffffffffffff1673ffffffffffffffffffffffffffffffffffffffff168152602001908152602001600020600082825461079891906113ea565b9250508190555080600360008282546107b191906113ea565b925050819055503373ffffffffffffffffffffffffffffffffffffffff167f0f6798a560793a54c3bcfe86a93cde1e73087d944c0ea20544137d4121396885826040516107fe9190611035565b60405180910390a250565b6000610816338484610d25565b6001905092915050565b6006602052816000526040600020602052806000526040600020600091509150505481565b6000600860003373ffffffffffffffffffffffffffffffffffffffff1673ffffffffffffffffffffffffffffffffffffffff16815260200190815260200160002060009054906101000a900460ff16156108d4576040517f08c379a00000000000000000000000000000000000000000000000000000000081526004016108cb9061146a565b60405180910390fd5b6000600260009054906101000a900460ff16600a6108f291906115bd565b6009546108ff9190611608565b905080600560003373ffffffffffffffffffffffffffffffffffffffff1673ffffffffffffffffffffffffffffffffffffffff168152602001908152602001600020600082825461095091906113ea565b92505081905550806003600082825461096991906113ea565b925050819055506001600860003373ffffffffffffffffffffffffffffffffffffffff1673ffffffffffffffffffffffffffffffffffffffff16815260200190815260200160002060006101000a81548160ff0219169083151502179055506007339080600181540180825580915050600190039060005260206000200160009091909190916101000a81548173ffffffffffffffffffffffffffffffffffffffff021916908373ffffffffffffffffffffffffffffffffffffffff1602179055503373ffffffffffffffffffffffffffffffffffffffff167f1c5347d1e37925b93058518c26d7daabe45f0a3227e8d058aaf3682960eb2b9482604051610a719190611035565b60405180910390a2600191505090565b606080600060078054905067ffffffffffffffff811115610aa557610aa461164a565b5b604051908082528060200260200182016040528015610ad35781602001602082028036833780820191505090505b50905060005b6007805490508162ffffff161015610ba5576005600060078362ffffff1681548110610b0857610b07611679565b5b9060005260206000200160009054906101000a900473ffffffffffffffffffffffffffffffffffffffff1673ffffffffffffffffffffffffffffffffffffffff1673ffffffffffffffffffffffffffffffffffffffff16815260200190815260200160002054828262ffffff1681518110610b8657610b85611679565b5b6020026020010181815250508080610b9d906116b7565b915050610ad9565b5060078181805480602002602001604051908101604052809291908181526020018280548015610c2a57602002820191906000526020600020905b8160009054906101000a900473ffffffffffffffffffffffffffffffffffffffff1673ffffffffffffffffffffffffffffffffffffffff1681526020019060010190808311610be0575b5050505050915092509250509091565b80600660008573ffffffffffffffffffffffffffffffffffffffff1673ffffffffffffffffffffffffffffffffffffffff16815260200190815260200160002060008473ffffffffffffffffffffffffffffffffffffffff1673ffffffffffffffffffffffffffffffffffffffff168152602001908152602001600020819055508173ffffffffffffffffffffffffffffffffffffffff168373ffffffffffffffffffffffffffffffffffffffff167f8c5be1e5ebec7d5bd14f71427d1e84f3dd0314c0f7b2291e5b200ac8c7c3b92583604051610d189190611035565b60405180910390a3505050565b80600560008573ffffffffffffffffffffffffffffffffffffffff1673ffffffffffffffffffffffffffffffffffffffff1681526020019081526020016000206000828254610d7491906113b6565b9250508190555080600560008473ffffffffffffffffffffffffffffffffffffffff1673ffffffffffffffffffffffffffffffffffffffff1681526020019081526020016000206000828254610dca91906113ea565b925050819055508173ffffffffffffffffffffffffffffffffffffffff168373ffffffffffffffffffffffffffffffffffffffff167fddf252ad1be2c89b69c2b068fc378daa952ba7f163c4a11628f55a4df523b3ef83604051610e2e9190611035565b60405180910390a3505050565b600081519050919050565b600082825260208201905092915050565b60005b83811015610e75578082015181840152602081019050610e5a565b60008484015250505050565b6000601f19601f8301169050919050565b6000610e9d82610e3b565b610ea78185610e46565b9350610eb7818560208601610e57565b610ec081610e81565b840191505092915050565b60006020820190508181036000830152610ee58184610e92565b905092915050565b600073ffffffffffffffffffffffffffffffffffffffff82169050919050565b6000610f1882610eed565b9050919050565b610f2881610f0d565b82525050565b6000602082019050610f436000830184610f1f565b92915050565b600080fd5b610f5781610f0d565b8114610f6257600080fd5b50565b600081359050610f7481610f4e565b92915050565b6000819050919050565b610f8d81610f7a565b8114610f9857600080fd5b50565b600081359050610faa81610f84565b92915050565b60008060408385031215610fc757610fc6610f49565b5b6000610fd585828601610f65565b9250506020610fe685828601610f9b565b9150509250929050565b60008115159050919050565b61100581610ff0565b82525050565b60006020820190506110206000830184610ffc565b92915050565b61102f81610f7a565b82525050565b600060208201905061104a6000830184611026565b92915050565b60008060006060848603121561106957611068610f49565b5b600061107786828701610f65565b935050602061108886828701610f65565b925050604061109986828701610f9b565b9150509250925092565b6000602082840312156110b9576110b8610f49565b5b60006110c784828501610f65565b91505092915050565b600060ff82169050919050565b6110e6816110d0565b82525050565b600060208201905061110160008301846110dd565b92915050565b60006020828403121561111d5761111c610f49565b5b600061112b84828501610f9b565b91505092915050565b6000806040838503121561114b5761114a610f49565b5b600061115985828601610f65565b925050602061116a85828601610f65565b9150509250929050565b600081519050919050565b600082825260208201905092915050565b6000819050602082019050919050565b6111a981610f0d565b82525050565b60006111bb83836111a0565b60208301905092915050565b6000602082019050919050565b60006111df82611174565b6111e9818561117f565b93506111f483611190565b8060005b8381101561122557815161120c88826111af565b9750611217836111c7565b9250506001810190506111f8565b5085935050505092915050565b600081519050919050565b600082825260208201905092915050565b6000819050602082019050919050565b61126781610f7a565b82525050565b6000611279838361125e565b60208301905092915050565b6000602082019050919050565b600061129d82611232565b6112a7818561123d565b93506112b28361124e565b8060005b838110156112e35781516112ca888261126d565b97506112d583611285565b9250506001810190506112b6565b5085935050505092915050565b6000604082019050818103600083015261130a81856111d4565b9050818103602083015261131e8184611292565b90509392505050565b7f4e487b7100000000000000000000000000000000000000000000000000000000600052602260045260246000fd5b6000600282049050600182168061136e57607f821691505b60208210810361138157611380611327565b5b50919050565b7f4e487b7100000000000000000000000000000000000000000000000000000000600052601160045260246000fd5b60006113c182610f7a565b91506113cc83610f7a565b92508282039050818111156113e4576113e3611387565b5b92915050565b60006113f582610f7a565b915061140083610f7a565b925082820190508082111561141857611417611387565b5b92915050565b7f6661756365746564000000000000000000000000000000000000000000000000600082015250565b6000611454600883610e46565b915061145f8261141e565b602082019050919050565b6000602082019050818103600083015261148381611447565b9050919050565b60008160011c9050919050565b6000808291508390505b60018511156114e1578086048111156114bd576114bc611387565b5b60018516156114cc5780820291505b80810290506114da8561148a565b94506114a1565b94509492505050565b6000826114fa57600190506115b6565b8161150857600090506115b6565b816001811461151e576002811461152857611557565b60019150506115b6565b60ff84111561153a57611539611387565b5b8360020a91508482111561155157611550611387565b5b506115b6565b5060208310610133831016604e8410600b841016171561158c5782820a90508381111561158757611586611387565b5b6115b6565b6115998484846001611497565b925090508184048111156115b0576115af611387565b5b81810290505b9392505050565b60006115c882610f7a565b91506115d3836110d0565b92506116007fffffffffffffffffffffffffffffffffffffffffffffffffffffffffffffffff84846114ea565b905092915050565b600061161382610f7a565b915061161e83610f7a565b925082820261162c81610f7a565b9150828204841483151761164357611642611387565b5b5092915050565b7f4e487b7100000000000000000000000000000000000000000000000000000000600052604160045260246000fd5b7f4e487b7100000000000000000000000000000000000000000000000000000000600052603260045260246000fd5b600062ffffff82169050919050565b60006116c2826116a8565b915062ffffff82036116d7576116d6611387565b5b60018201905091905056fea264697066735822122040c1a29389faea1644da1591908e3416dd8730478d8b081b76c237bfcbf2bf6664736f6c63430008110033",
  "linkReferences": {},
  "deployedLinkReferences": {}
}