{
  "_format": "hh-sol-artifact-1",
  "contractName": "IotabeeOrder",
  "sourceName": "contracts/iotabee_order.sol",
  "abi": [
    {
      "inputs": [
        {
          "internalType": "address",
          "name": "_token",
          "type": "address"
        },
        {
          "internalType": "address",
          "name": "_pool",
          "type": "address"
        }
      ],
      "stateMutability": "nonpayable",
      "type": "constructor"
    },
    {
      "anonymous": false,
      "inputs": [
        {
          "indexed": true,
          "internalType": "address",
          "name": "sender",
          "type": "address"
        },
        {
          "indexed": false,
          "internalType": "bytes32",
          "name": "coin",
          "type": "bytes32"
        },
        {
          "indexed": false,
          "internalType": "bytes32",
          "name": "account",
          "type": "bytes32"
        },
        {
          "indexed": false,
          "internalType": "uint256",
          "name": "amount",
          "type": "uint256"
        }
      ],
      "name": "Collect",
      "type": "event"
    },
    {
      "anonymous": false,
      "inputs": [
        {
          "indexed": true,
          "internalType": "address",
          "name": "sender",
          "type": "address"
        },
        {
          "indexed": false,
          "internalType": "bytes32",
          "name": "toCoin",
          "type": "bytes32"
        },
        {
          "indexed": false,
          "internalType": "bytes32",
          "name": "toAddr",
          "type": "bytes32"
        },
        {
          "indexed": false,
          "internalType": "uint256",
          "name": "amount",
          "type": "uint256"
        },
        {
          "indexed": false,
          "internalType": "uint256",
          "name": "min_amount",
          "type": "uint256"
        }
      ],
      "name": "Swap",
      "type": "event"
    },
    {
      "inputs": [
        {
          "internalType": "bytes32",
          "name": "coin",
          "type": "bytes32"
        },
        {
          "internalType": "bytes32",
          "name": "account",
          "type": "bytes32"
        },
        {
          "internalType": "uint256",
          "name": "amount",
          "type": "uint256"
        }
      ],
      "name": "collect",
      "outputs": [],
      "stateMutability": "nonpayable",
      "type": "function"
    },
    {
      "inputs": [],
      "name": "pool",
      "outputs": [
        {
          "internalType": "address",
          "name": "",
          "type": "address"
        }
      ],
      "stateMutability": "view",
      "type": "function"
    },
    {
      "inputs": [
        {
          "internalType": "bytes32",
          "name": "toCoin",
          "type": "bytes32"
        },
        {
          "internalType": "bytes32",
          "name": "toAddr",
          "type": "bytes32"
        },
        {
          "internalType": "uint256",
          "name": "amount",
          "type": "uint256"
        },
        {
          "internalType": "uint256",
          "name": "min_amount",
          "type": "uint256"
        }
      ],
      "name": "swap",
      "outputs": [],
      "stateMutability": "nonpayable",
      "type": "function"
    },
    {
      "inputs": [],
      "name": "token",
      "outputs": [
        {
          "internalType": "contract IERC20",
          "name": "",
          "type": "address"
        }
      ],
      "stateMutability": "view",
      "type": "function"
    }
  ],
  "bytecode": "0x608060405234801561001057600080fd5b5060405161081f38038061081f8339818101604052810190610032919061011d565b81600160006101000a81548173ffffffffffffffffffffffffffffffffffffffff021916908373ffffffffffffffffffffffffffffffffffffffff160217905550806000806101000a81548173ffffffffffffffffffffffffffffffffffffffff021916908373ffffffffffffffffffffffffffffffffffffffff160217905550505061015d565b600080fd5b600073ffffffffffffffffffffffffffffffffffffffff82169050919050565b60006100ea826100bf565b9050919050565b6100fa816100df565b811461010557600080fd5b50565b600081519050610117816100f1565b92915050565b60008060408385031215610134576101336100ba565b5b600061014285828601610108565b925050602061015385828601610108565b9150509250929050565b6106b38061016c6000396000f3fe608060405234801561001057600080fd5b506004361061004c5760003560e01c806316f0115b146100515780638d2754a01461006f578063d90cf0701461008b578063fc0c546a146100a7575b600080fd5b6100596100c5565b6040516100669190610387565b60405180910390f35b61008960048036038101906100849190610413565b6100e9565b005b6100a560048036038101906100a09190610466565b610203565b005b6100af610320565b6040516100bc919061052c565b60405180910390f35b60008054906101000a900473ffffffffffffffffffffffffffffffffffffffff1681565b600160009054906101000a900473ffffffffffffffffffffffffffffffffffffffff1673ffffffffffffffffffffffffffffffffffffffff166323b872dd3360008054906101000a900473ffffffffffffffffffffffffffffffffffffffff16846040518463ffffffff1660e01b815260040161016893929190610556565b6020604051808303816000875af1158015610187573d6000803e3d6000fd5b505050506040513d601f19601f820116820180604052508101906101ab91906105c5565b503373ffffffffffffffffffffffffffffffffffffffff167f96d87b99131835302816acc8aa52704a3961f803622a92c490547d88a884e6ac8484846040516101f693929190610601565b60405180910390a2505050565b600160009054906101000a900473ffffffffffffffffffffffffffffffffffffffff1673ffffffffffffffffffffffffffffffffffffffff166323b872dd3360008054906101000a900473ffffffffffffffffffffffffffffffffffffffff16856040518463ffffffff1660e01b815260040161028293929190610556565b6020604051808303816000875af11580156102a1573d6000803e3d6000fd5b505050506040513d601f19601f820116820180604052508101906102c591906105c5565b503373ffffffffffffffffffffffffffffffffffffffff167fe353b2af3b79c1202b265675592f4e12eb3fafeaace4b1d9c128ede7d1de4f0d858585856040516103129493929190610638565b60405180910390a250505050565b600160009054906101000a900473ffffffffffffffffffffffffffffffffffffffff1681565b600073ffffffffffffffffffffffffffffffffffffffff82169050919050565b600061037182610346565b9050919050565b61038181610366565b82525050565b600060208201905061039c6000830184610378565b92915050565b600080fd5b6000819050919050565b6103ba816103a7565b81146103c557600080fd5b50565b6000813590506103d7816103b1565b92915050565b6000819050919050565b6103f0816103dd565b81146103fb57600080fd5b50565b60008135905061040d816103e7565b92915050565b60008060006060848603121561042c5761042b6103a2565b5b600061043a868287016103c8565b935050602061044b868287016103c8565b925050604061045c868287016103fe565b9150509250925092565b600080600080608085870312156104805761047f6103a2565b5b600061048e878288016103c8565b945050602061049f878288016103c8565b93505060406104b0878288016103fe565b92505060606104c1878288016103fe565b91505092959194509250565b6000819050919050565b60006104f26104ed6104e884610346565b6104cd565b610346565b9050919050565b6000610504826104d7565b9050919050565b6000610516826104f9565b9050919050565b6105268161050b565b82525050565b6000602082019050610541600083018461051d565b92915050565b610550816103dd565b82525050565b600060608201905061056b6000830186610378565b6105786020830185610378565b6105856040830184610547565b949350505050565b60008115159050919050565b6105a28161058d565b81146105ad57600080fd5b50565b6000815190506105bf81610599565b92915050565b6000602082840312156105db576105da6103a2565b5b60006105e9848285016105b0565b91505092915050565b6105fb816103a7565b82525050565b600060608201905061061660008301866105f2565b61062360208301856105f2565b6106306040830184610547565b949350505050565b600060808201905061064d60008301876105f2565b61065a60208301866105f2565b6106676040830185610547565b6106746060830184610547565b9594505050505056fea26469706673582212209b8503fc1ddc7c3d8217390d96a3931994ce76db7da8c16367dc4a635b8af3da64736f6c63430008110033",
  "linkReferences": {},
  "deployedLinkReferences": {}
}