{
  "_format": "hh-sol-artifact-1",
  "contractName": "Ownable",
  "sourceName": "contracts/ownable.sol",
  "abi": [
    {
      "inputs": [],
      "name": "acceptSetter",
      "outputs": [],
      "stateMutability": "nonpayable",
      "type": "function"
    },
    {
      "inputs": [],
      "name": "owner",
      "outputs": [
        {
          "internalType": "address",
          "name": "",
          "type": "address"
        }
      ],
      "stateMutability": "view",
      "type": "function"
    },
    {
      "inputs": [
        {
          "internalType": "address",
          "name": "_owner",
          "type": "address"
        }
      ],
      "name": "transferOwner",
      "outputs": [],
      "stateMutability": "nonpayable",
      "type": "function"
    }
  ],
  "bytecode": "0x608060405234801561001057600080fd5b50610423806100206000396000f3fe608060405234801561001057600080fd5b50600436106100415760003560e01c80634fb2e45d146100465780635f8e422f146100625780638da5cb5b1461006c575b600080fd5b610060600480360381019061005b9190610319565b61008a565b005b61006a61015c565b005b610074610292565b6040516100819190610355565b60405180910390f35b60008054906101000a900473ffffffffffffffffffffffffffffffffffffffff1673ffffffffffffffffffffffffffffffffffffffff163373ffffffffffffffffffffffffffffffffffffffff1614610118576040517f08c379a000000000000000000000000000000000000000000000000000000000815260040161010f906103cd565b60405180910390fd5b80600160006101000a81548173ffffffffffffffffffffffffffffffffffffffff021916908373ffffffffffffffffffffffffffffffffffffffff16021790555050565b600160009054906101000a900473ffffffffffffffffffffffffffffffffffffffff1673ffffffffffffffffffffffffffffffffffffffff163373ffffffffffffffffffffffffffffffffffffffff16146101ec576040517f08c379a00000000000000000000000000000000000000000000000000000000081526004016101e3906103cd565b60405180910390fd5b600160009054906101000a900473ffffffffffffffffffffffffffffffffffffffff166000806101000a81548173ffffffffffffffffffffffffffffffffffffffff021916908373ffffffffffffffffffffffffffffffffffffffff1602179055506000600160006101000a81548173ffffffffffffffffffffffffffffffffffffffff021916908373ffffffffffffffffffffffffffffffffffffffff160217905550565b60008054906101000a900473ffffffffffffffffffffffffffffffffffffffff1681565b600080fd5b600073ffffffffffffffffffffffffffffffffffffffff82169050919050565b60006102e6826102bb565b9050919050565b6102f6816102db565b811461030157600080fd5b50565b600081359050610313816102ed565b92915050565b60006020828403121561032f5761032e6102b6565b5b600061033d84828501610304565b91505092915050565b61034f816102db565b82525050565b600060208201905061036a6000830184610346565b92915050565b600082825260208201905092915050565b7f666f7262696464656e0000000000000000000000000000000000000000000000600082015250565b60006103b7600983610370565b91506103c282610381565b602082019050919050565b600060208201905081810360008301526103e6816103aa565b905091905056fea2646970667358221220f716ac8484601374c12d999c5c90dea95d325286aba80bab2039015f477df4f064736f6c63430008110033",
  "linkReferences": {},
  "deployedLinkReferences": {}
}